:020000040800F2
:100000000000022079F70508E59900080130020890
:1000100029F8050829F8050829F805080000000056
:10002000000000000000000000000000B9B400085B
:10003000BBB4000800000000BDB40008094401087A
:1000400029F8050829F8050829F8050829F80508F8
:1000500029F8050829F805080BFD00080FFD000820
:1000600029F8050813FD000817FD000849A4000839
:100070005DA4000871A4000885A4000899A40008E4
:10008000ADA40008C1A4000829F80508000000007C
:100090000000000000000000000000001BFD000840
:1000A00081A30008A9A30008D1A300086BA300083E
:1000B000F9A300080DA4000821A4000829F80508E8
:1000C00029F8050829F8050829F8050829F8050878
:1000D00029F80508719C00087D9C000800000000BC
:1000E0001FFD000829F80508BFB400080000000043
:1000F000000000000000000000000000D5A400087F
:100100000000000029F8050835A4000829F80508B2
:1001100000000000000000000000000000000000DF
:10012000E9A40008FDA4000811A5000825A5000801
:1001300039A50008000000000000000000000000D9
:1001400000000000000000000000000011B50008E1
:100150004DA5000861A5000875A5000829F8050847
:1001600029F8050829F80508000000000000000033
:10017000000000000000000000000000000000007F
:100180000000000029F80508000000000000000041
:0801900029F8050829F805080B
:1001980081C90181008408B10000000080C9018183
:1001A800B0AB08B100000000C9060181B0B0AF854E
:1001B800000000003F1A0181B0AF81C900000000B3
:1001C800901A060000840280F81A06000100000058
:1001D800601C060000840280CC1C060001000000A0
:1001E800CC1C0600ACFFFF7F081E0600B0FFFF7F97
:1001F800A81F0600B0B0AE804C210600B0A8018050
:1002080094220600AE80C98080280600B0AA058026
:10021800DC2A060001000000E02A06008CFFFF7FB0
:100228000C36060001000000A038060088FFFF7F9A
:100238000C3F060001000000983F0600AF08B1809F
:10024800D042060001000000DC420600A908B18087
:1002580088440600010000002C4F0600B0A9028067
:10026800C04F0600B0B0A880105006000100000082
:1002780018500600B0B0AA804C500600AE71B2808B
:1002880010510600AB3F3880705106000100000095
:1002980078510600B0B0AA80B451060001000000F1
:1002A80054520600AA0DB280D0520600B0AF0880A2
:1002B800705506000100000080550600AD3F028021
:1002C800FC570600010000002C580600B0AD048061
:0802D800D05A060001000000ED
:1002E0003C2F01200201000001012C005C2F0120A5
:1002F000010200000100681E7C2F012002030000A3
:1003000001012C009C2F0120020A000001012C0099
:10031000BC2F0120010B000000007700DC2F012022
:10032000010C000000007600FC2F012001100000ED
:10033000000076001C300120010D01000000770054
:100340003C3001200114000000001E005C30012040
:10035000011A000000000D007C300120011B00008C
:1003600000000E009C300120011C000000001E0057
:10037000BC3001200117000000000C00DC3001201F
:100380000118000000000E00FC30012001190000DF
:1003900000000C001C3101200229010000012C008A
:1003A0003C31012002300000000014005C310120CB
:1003B0000132000000003C007C31012001350000CA
:0403C0000000200019
:10800000D0E907239A422FBFD01AC0688018C01A3F
:108010007047D0E9092300699A4238BF1218D31A71
:108020000138C01A7047D0E90902131A5842584162
:108030007047036A41690246C85CD16801338B42CC
:1080400028BF002313627047436A8269D154436A90
:1080500002690133934228BF0023426B4362D36815
:1080600043F08003D3607047436B188810F0100012
:108070001EBF1A889B8801207047436B99891A8814
:10808000890610B592B2044607D5900605D5E26A76
:1080900022B39888216B80B29047636B99891A88C4
:1080A000090692B20FD510060DD5D4E909128A42FD
:1080B00022D0A169895C998021690132B2FBF1F07B
:1080C00001FB1022A262998A1A88C90592B204D5CE
:1080D000D20744BF4FF6F7721A8010BD9B88E26941
:1080E0006169DBB28B54E369E2680133B3FBF2F1FF
:1080F00002FB1133E361D0E7DA6822F08002DA6034
:10810000E1E77047064A002352F83310814201D15B
:10811000D8B2704701330E2BF6D1FE20704700BF56
:108120005C6106087047036941681F2B30B54FF04A
:10813000200285BFA3F120054C680C68AA4098BFB7
:108140009A40224220D0826900201074D06884684E
:10815000206820F0010020605068046845790B48D1
:10816000A28900EB450092B2B0F870001F2B22EA02
:108170000002A28188BF203B4FF020028BBF9A40B3
:1081800002FA03F3CA608B6030BD00BF5C61060871
:108190000E4BDA68D20310D4DA68D1060FD4DA684D
:1081A000D2050ED4DA6812F0E00F0CD1DB6813F0C0
:1081B000020F14BF082009207047012070470620D5
:1081C0007047022070470720704700BF003C024004
:1081D00007B509238DF80730FFF7DAFF8DF80700A0
:1081E0009DF80730012BF7D09DF8070003B05DF82C
:1081F00004FB838A028B9BB243EA024331EA030306
:108200000CBF01200020704782B00023019300932F
:10821000012300900193019B63B1009A21F07F43F9
:1082200014320092009A12681A4214BF01200020F2
:1082300002B07047009A1832F3E770477047012088
:108240007047044BD3E90003984288BF03F50063ED
:10825000181A7047C0160020054AD2E900318B4237
:10826000FDD0D1180133C3F30A03087A13607047B5
:10827000C0160020044BD3F8080820B1D3F8080832
:10828000431F584258417047C0160020012380F810
:108290004930704710B5D0F8E83504461B69984757
:1082A000032384F81231002010BD08B590F8123174
:1082B00080F81331042380F81231D0F8E835DB68F8
:1082C0009847002008BD08B5D0F8E435DB6903B154
:1082D0009847002008BD08B5D0F8E4351B6A9847D8
:1082E000002008BD08B5D0F8E4355B6A9847002047
:1082F00008BD30B50138002423460134055D002D4A
:10830000FAD1DBB201335B0013800B7003234B7097
:10831000022310F8014F04B930BD5A1CD2B2CC541C
:1083200002338D54DBB2F4E710B5074C2068FF2808
:1083300008D00649D1F80C2801F5016100F070F869
:10834000FF232360002010BD00000020C016002085
:10835000432301480B80704704000020122301488A
:108360000B80704747000020042301480B807047B2
:108370005900002008B50A4602490348FFF7B9FF33
:10838000084608BDD81E002035FC060808B50A4678
:1083900002490348FFF7ADFF084608BDD81E00207C
:1083A00041FC060808B50A4602490348FFF7A1FF49
:1083B000084608BDD81E002046FC060808B50A4637
:1083C00002490348FFF795FF084608BDD81E002064
:1083D00050FC060808B50A4602490348FFF789FF22
:1083E000084608BDD81E00205BFC06087047704791
:1083F0007047704770477047044B00200522C3F850
:108400000828C3F81809C3F81C097047C0160020D3
:10841000024B0020C3F80808704700BFC0160020B8
:10842000212838B50C461BD022282BD0202815D166
:10843000A1B1072A12D11A4DD5F81C3913B1096818
:10844000002098472368C5F82039237985F8243916
:10845000637985F82539A37985F82639002038BD58
:108460000029FBD0072AF9D10D4BD3F820290A6047
:1084700093F824290A7193F825294A7193F826392B
:108480008B71EBE70029E9D0022AE7D1044BD3F83E
:108490001839002BE2D0098800209847DEE700BF9A
:1084A000C0160020074AD2F82839D2F82C29934266
:1084B00003F1FF338CBF002001209B1A03EBC02087
:1084C000704700BFC0160020ECE730B50F4CD4E970
:1084D00000239A4286BF03F50065AA1A9A1A0A4435
:1084E000B2F5006F10D801440022814203D102B1DD
:1084F0006360002030BDE21810F8015B1572013393
:10850000C3F30A030122F0E70220F3E7C0160020BC
:10851000202301480B8070475D0000201223014892
:108520000B8070477D000020042301480B807047BA
:108530008F0000200A4608B5044920B90448FFF717
:10854000D8FE024808BD0348F9E700BFF01F00202D
:1085500069FC060881FC060808B50A46024903487A
:10856000FFF7C7FE084608BDF01F002099FC06086B
:1085700008B50A4602490348FFF7BBFE084608BD96
:10858000F01F0020ACFC060808B50A460249034863
:10859000FFF7AFFE084608BDF01F0020B7FC060835
:1085A000002370B54D1C1E46040FB0F1204F34BFA0
:1085B0003034373401F8134005F813600133DCB26E
:1085C000A2424FEA0010EFD870BD1A2310B50B80FD
:1085D000094BD3F8E807D3F8EC2780180AD0D3F872
:1085E000EA4706490822FFF7DBFF04221031204644
:1085F000FFF7D6FF024810BD00F0FF1F95000020D6
:10860000930000204FF400731360034BD3F8383A03
:108610000B600020704700BFC0160020002070478C
:1086200001207047012070470020704730B4144685
:108630001A69A24209D30D19AA429B6938BF111BBE
:108640000A46E11830BC5CF07FBA30BC704700BF0E
:10865000704700BF704700BFD0ED007AD0ED036ACD
:1086600030EE677AE6EE877AB0EE670AC0ED007A00
:10867000704700BFD0ED017A80ED021AF5EE407A26
:10868000F1EE10FA04BF9FED0C7AC7EE207A31EEBE
:10869000277A08BFC0ED017AC1EE076AD0ED007AF3
:1086A000C0ED036A30EE677AE6EE877AB0EE670ACD
:1086B000C0ED007A704700BF83F9223E90ED017A49
:1086C000D0ED036AD0ED027A30EE470AA6EE807A4A
:1086D00090ED000A80ED017A37EE676AE6EE867A61
:1086E00037EEC07AC0ED027AA6EE870A80ED000A66
:1086F00070472DE9F347038A8689B6B205460C46D2
:108700001E404FF0004901F14C0701F1340816B941
:1087100002B0BDE8F087B6FA86F329FA03F2D24335
:1087200091B2298216401B3B002C40D0042BEED87E
:10873000DFE803F039342E280300E368D5F82CA0D5
:108740002BB19B681BB11FFA8AF1201D9847636A01
:1087500033B19B6823B11FFA8AF104F11C009847DA
:10876000E36B2BB19B681BB11FFA8AF14046984717
:10877000636D002BCBD09B68002BC8D01FFA8AF109
:10878000384603E0E368696B5B68201D9847BEE7E5
:10879000636AA96B5B6804F11C00F7E7E36BE96BA4
:1087A0005B684046F2E7636D296C5B68E8E7042B81
:1087B00006D8DFE803F00D0B09070300EB6A01930D
:1087C000019BA4E76B6BFAE7AB6BF8E7EB6BF6E7A3
:1087D0002B6CF4E790F84820531C0244DBB280F87D
:1087E000483082F8341090F849200AB1132B01D98F
:1087F00055F01ABF7047002280F8492055F014BF89
:1088000010B51C2008F0ACFF1121044608F07FFFD2
:10881000204608F077FFC8200BF08DFE2046BDE80B
:10882000104007F0C8BD70B50F4E96F8683A002B9F
:10883000FBD104464518AC4201D1002070BDD6F8EA
:108840002C3914F8011BF2180133C3F30A0382F820
:10885000691AC6F82C39FFF725FE0028EBD1012054
:108860000BF069FEF7E700BFC016002038B50C46D4
:108870001146FFF7FFFC48B1054D002AD5F87431C9
:1088800004DD2046FFF7CFFFD5F8743138BD00BFB7
:10889000B8270020F0B590F8CF5590F8CE1590F895
:1088A000D12590F8D03590F8CC7590F8CDC501EB76
:1088B00005218DB203EB022390F8D31590F8D22551
:1088C00085B002EB012207F01F06012192B29BB294
:1088D0008E4204468DF808708DF809C0ADF80A5034
:1088E000ADF80C30ADF80E20C0F8402180F8111121
:1088F00000F00C81022E00F01D81002E40F09B81C3
:10890000BCF1090F5ED8DFE81CF0B600F4005D0092
:10891000C8005D0057000A005D00A90076002E0A1D
:10892000022EADF806200BD0032E25D0012E49D102
:10893000D0F8EC351B68A0780DF10601984709E0E6
:10894000D0F8E43580789B6A0DF1060198474670AF
:10895000C4F8F005BDF80620002A47D0BDF80E3057
:10896000002B43D09A4228BF1A46ADF80620014694
:10897000204655F047FD39E0E9B2052922D8DFE865
:1089800001F003070B0F1317D0F8EC355B68D2E743
:10899000D0F8EC359B68CEE7D0F8EC35DB68CAE759
:1089A000D0F8EC351B69C6E7D0F8EC355B69C2E757
:1089B000D0F8EC359B69BEE71A4303D190F8123129
:1089C000032B03D1204653F05BFA0FE0016905F059
:1089D0007F0680F814610B6865F30A121A430A6077
:1089E00055F024FD2EB1022384F81231002005B089
:1089F000F0BD0123F8E7E9B2904D012985F878111F
:108A0000E0D890F81231022B0FD0032BDAD1C1B984
:108A1000022380F81231D0F8E43580F810115B6839
:108A20009847204655F002FDE0E70029F9D00121E2
:108A3000032380F8101180F81231204655F0DFFB37
:108A4000EFE790F810110129EBD0D0F8E4355B681E
:108A5000984795F8781184F81011EEE7012AB1D102
:108A600090F81231022B04D0032BABD100F58871A2
:108A70007EE773497CE790F81231023B012BA1D8C5
:108A80006E4B0022C3F88021D0F8182112B10222C7
:108A9000C3F880216B4902226AE7012D08D1C0F892
:108AA0001851D4F8E43502A99B6820469847B8E7E6
:108AB000022D9BD1DAB2002A98D102691B0A023B2F
:108AC0005268032B03D8DFE803F00C0E10120123C9
:108AD00063F30612594BC3F88421012384F816313D
:108AE0009FE70223F4E70323F2E70423F0E70523DB
:108AF000EEE790F81231023B012B3FF663AF012DF8
:108B00007FF474AF0023C0F81831CAE790F812213F
:108B1000032A7FF457AFDBB2012B3FF653AFD0F8F7
:108B2000E43502A99B689847BDF80E30002B7FF40E
:108B30005DAF76E707F06007202FD9B205D1D0F8F6
:108B4000E43502A99B68984750E7BCF1010F31D08A
:108B5000BCF1030F1ED0BCF1000F7FF447AF90F8BB
:108B60001221022A5AD0032A7FF42CAF13F0800F6F
:108B70004FF02802314B59D001F07F0102FB010177
:108B800091F81E21002A4FD00122C3F888212E49D6
:108B90000222EDE690F81231022B3FD0032B7FF436
:108BA00011AF002D7FF47DAF4A063FF47AAF55F048
:108BB00032FB76E790F81221022A2FD0032A7FF4A5
:108BC00001AF002D7FF412AF11F07F003FF429AF09
:108BD0005BB2002B4FF02802B5BF02FB004102FB45
:108BE000014101F58E7101F55D710022DB0F087006
:108BF0008A704B7004EB8000C9786BB1826913688E
:108C000002396FF3555301298CBFC3F30071012161
:108C100061F31C73136044E7426DF0E74B063FF4C9
:108C2000E5AE55F0F8FAE1E60022AEE702FB0101FD
:108C300091F87623A6E707F08001F2E7B827002035
:108C400034290020382900204029002010B504468E
:108C500071BB90F81131032B1BD1D0F89023D0F8C1
:108C60007C339A4217D9C178012908BFD0F8801304
:108C7000A2EB030204BFC918C0F88013934228BFB7
:108C80001346C0F890239BB2D0F88023002155F002
:108C90007DFC002010BDD0F8E4351B6923B190F8AD
:108CA0001221032A00D19847204655F0BFFBF0E778
:108CB000D0F8E4359B69002BEBD090F81221032A01
:108CC000E7D19847E5E770B50A7812F060040646E8
:108CD0000D462AD0202C2FD1CC884B78FCB112061F
:108CE0000CD51F4922461846FFF79AFBEA881C4913
:108CF000304655F087FB0024204670BD194A1360AA
:108D0000194A0323C2F80C4880F81131C0E9E44441
:108D1000234602F50162002155F038FCEBE7022200
:108D200011441846FFF77CFBE6E74B780A2B08D086
:108D30000B2B0BD0062BDFD1304653F0A1F80224C9
:108D4000DAE70A49012255F05DFBD5E78B781BB9BC
:108D5000074BC3F88C41CFE753F092F8CCE700BF44
:108D6000D01E002000000020C01600204429002052
:108D7000B827002010B5282303FB0101074AB1F8EA
:108D80008C1304461046FFF7A0FB2046034A4023FD
:108D9000012155F0FBFB002010BD00BF4829002039
:108DA00070B50F4DD5F8D831044643B195F8DC21A4
:108DB00095F8F031134302D1012155F02CFA8121AD
:108DC000204655F028FA95F8F031022B07D12046BD
:108DD000044ABDE870401F23012155F0D7BB70BD88
:108DE000B827002088290020002310B51946044622
:108DF000402255F06AFA402280212046002355F097
:108E000064FA012384F81231D4F8E835A0785B685D
:108E10009847002010BD38B5402204460223812126
:108E200055F053FA204602234022012155F04DFA15
:108E3000204603230822822155F047FA084B0222DC
:108E4000002583F84B2083F84C50FFF7D5FA012119
:108E50002046044A402355F099FB284638BD00BF00
:108E6000000000204829002010B58121044655F05B
:108E700003FA2046012155F0FFF92046822155F0E2
:108E8000FBF9FFF7C5FA002010BD10B5812104469B
:108E900055F0F2F92046012155F0EEF9024B002081
:108EA00083F8F10110BD00BFB827002038B5264C6B
:108EB00094F8682A012A034633D12448D0F8F421D3
:108EC0001AB984F8682A002038BD402AD4F8281935
:108ED00019D9403A01F14005C0F8F421C4F82859E5
:108EE00040221B4810FA81F1C3E9541140F20110ED
:108EF0000021C3E95621A3F8440103F5A2711846E5
:108F000055F0ABFADFE702EB0105C4F828594FF042
:108F10000005C0F8F4510ABF022092B284F8680A32
:108F2000DFE7022ACFD1002540F20112C0E95455F3
:108F3000C0E95655A0F8442100F5A27155F08DFA0C
:108F400084F8685ABFE700BFC0160020B827002089
:108F50002921002038B52A4CD4F8F8310F2B03F121
:108F6000010203D0C4F8F821002038BD254A0023AF
:108F7000C4F8F83192F8683A002BF5D1D2F82819E4
:108F8000B1F5006F08BFC2F82839D2F82819D2F815
:108F90002C39994203D1002382F8683AE4E78CBF68
:108FA000C1F500635B1A402B1BD9403B01F1400522
:108FB000C4F8F431012382F8683AC2F828594023F2
:108FC000114A12FA81F140F20112A0F84421002264
:108FD000C0E95411C0E9563200F5A27155F03DFACE
:108FE000C2E701EB0305C2F828594FF00005C4F8A9
:108FF000F4510EBF022401249BB282F8684ADFE7D5
:10900000B8270020C01600202921002070B5044692
:10901000144EFFF73AFF204602234022812155F0EB
:1090200054F9402201212046022355F04EF9002533
:10903000D6F8FC3186F8F1511B6886F8F0512846C5
:109040009847E06855F0C0FAE068012155F0D2FA7F
:1090500020461F2306F5E872012155F097FA2846AD
:1090600070BD00BFB827002008B5002053F0A8FA53
:10907000002008BD2DE9F843089D0E461746002143
:109080002022044698465BF098FF4DB12B68E3819F
:109090001A0C6B682282E3821A0C6B89228363822A
:1090A000304655F037FCFB0604D400F1FF39B9F126
:1090B000FF3F41D1082802464FF0FF39A8BF0822E0
:1090C00000254FF0203323606360314620465BF07B
:1090D0003BFD234A228104F1080309F10101A27238
:1090E00018462A4631445BF02FFD621E0346E01D00
:1090F00012F8011FA1F16105192D9CBF20391170D3
:109100008242F5D1184604F10B0210F8013BA3F19D
:10911000610119299CBF203B00F8013C9042F4D129
:10912000182323734FEA1843A382099BE772A4F81C
:109130001A80E361BDE8F88316F809302E2B02D0BF
:1091400009F1FF39B3E74A46A0EB0905082A05F102
:10915000FF35A8BF0822032DA8BF0325B1E700BF34
:10916000202020002DE9F04F012085B00D46164645
:10917000994653F025FAB64F04352C1FB9F1000F6C
:1091800006D1484653F01CFA484605B0BDE8F08FBA
:10919000D7F8502AB24200F2B780D7F860AAA6EBFF
:1091A00002084FEAD803DAF830200233934208F07D
:1091B000070803D3DAF83820934218D951461846E5
:1091C000039352F0AEFB039B824670B9A5F10803EE
:1091D00005F5FC729F4943F8041F9342FAD109F147
:1091E000FF39013605F50075C7E7C7F8600A9AF838
:1091F0000420002A6DD04FF40072002120465BF05D
:10920000DCFEDAF84030B8F1000F47D1CDE9008834
:1092100005F11C0B43BB43462046D7F83C1A0822F5
:10922000FFF728FF5C464FF4F073DAF8448004EB54
:10923000030AB8F1000FD2D05445D0D098F80420DA
:10924000D8F80010D8F8303004F1200B08F11C00D9
:10925000B2B30022CDE9000211222046FFF70AFF37
:109260005C46D8F84880E4E7DAF830307A491122D1
:109270002046FFF7FFFEDAF840301A6C05F13C0497
:10928000CDE9008842B94346744911225846FFF798
:10929000F1FE4FF4E073C8E71B6BF5E7002B0CBF42
:1092A00001220222C2EB0812DAF84480B8F1000F62
:1092B00003D0013AD8F84880F8D14FF40073B6E7EC
:1092C00098F805C0D8F81020CDE900024CF0210232
:1092D000C3E7DAF828B0BBF1000F06D14FF40072F3
:1092E000002120465BF069FE79E7DAF830209B1A0E
:1092F000DAF80C2008EBC30802EB482253464FF47F
:1093000000712046D8476AE7002E64D14FF40072FE
:10931000314620465BF051FE802385F8BA310C239C
:1093200085F8BE31D7F8402A4D49D7F8383AC4F805
:10933000C6218A42C4F8CA3118DDFF2285F8BB2154
:1093400085F8BD2185F8BC21454A013B934228DDC3
:10935000FF2385F8BF3185F8C13185F8C031552329
:1093600085F8FA31AA2385F8FB3138E73F2192FBD3
:10937000F1F1C1EB811C43F6C16492FBF4F4A2EB62
:109380000C02A01020F03F000132024385F8BC21FE
:10939000FF2291FBF2F2114485F8BD4185F8BB1123
:1093A000D2E73F2293FBF2F2C2EB821443F6C16094
:1093B00093FBF0F01B1B811021F03F0101330B43A5
:1093C00085F8C031FF2392FBF3F31A4485F8C101FD
:1093D00085F8BF21C3E7D7F8443A9E4242D15223D1
:1093E000237063706123A37084F8E731D7F8583A8B
:1093F000C4F8E8314FF000084FF0FF3341227221EA
:10940000E27084F8E41184F8E51184F8E62184F828
:10941000EC3184F8ED3184F8EE3184F8EF314FF41B
:10942000F072414628465BF0C8FD5523C5F8EC8133
:10943000C5F8F081C5F8F48184F8FE316FF055036A
:1094400084F8FC8184F8FD8184F8FF31C7E600BF11
:10945000C0160020DEADBEEF522A0708512A0708C9
:10946000FF03FB00D7F8403A9E426DD14FF40072E3
:10947000002120465BF0A1FDEB2305F8043C3B4AAC
:10948000582305F8033C902305F8023C136845F87F
:10949000013C5368C5F80330022200234FF0080C4A
:1094A000F821E372227385F809C0A273E37369742B
:1094B0003F212A7321764FF0FF31A1763E21D7F864
:1094C000400A2177D7F8381A84F82C20091A21622B
:1094D000D7F8480AD7F84C1A63760122091AE376BE
:1094E0006377A377E37784F82D3084F82E3084F8FF
:1094F0002F30616284F8302084F83130802385F881
:109500003C30292385F83E30942385F83F300E23E4
:1095100085F840300D2385F84130154B85F842C061
:109520001A68C5F843205A68C5F847201A89A5F873
:109530004B20104A9B7A85F84D301368C5F84E30A1
:109540005368C5F852300AE7D7F8481AD7F84C3AAA
:109550008E4206D39E4207D2711A204652F004FA78
:109560003DE69E42FFF4BAAEF11AF6E7C5FC0608E6
:10957000CEFC0608DAFC060813460A4601461846E1
:1095800036F0B8BA2DE9F04F2DED028B8FB036F0E2
:10959000F1FA36F0C9FA4FF00008DFF838930646C2
:1095A000444647464546BE4200F3AB80642C40F03B
:1095B00053816825DFF8F082B84BD8F84C71C3F8B6
:1095C000B0704C22554308EB0503002118465BF0B0
:1095D000F4FC4C2200215BF0F0FCB14A48F8052075
:1095E0000122C0E90466C0E907778260AD4A826261
:1095F00047620534A94BAC4DD3F8B0707300B3F19A
:10960000805F18DA4C2254432B19002118465BF076
:10961000D4FC4C2200215BF0D0FCA44A2A51022247
:109620004271C6F1006601229640C0E90466C0E9B5
:109630000777826047629E499B484FF498725BF0BF
:1096400083FA994A042113460139C3E907775F6217
:1096500003F14C03F8D1AC68002C4DD12B79002BD1
:109660004AD02B68002B47D0C5E911118E482964D8
:10967000E9630F468C46C66C00F14C03002E40F0A7
:109680002B8102231068002840F05681894E981ED5
:10969000894BC6F83C3A3E23C6F8403A3F23C6F809
:1096A000443A4023C6F8483AC6F8581AC6F8644AFD
:1096B000C6F8540A830F8100002800F06A8140F246
:1096C000FF128A1843F10003520A42EAC35202F120
:1096D0004003C6F84C3A1344C6F8503A03EBC003B3
:1096E000DA0DC6F8383A5B02C6F8303A734BC6F862
:1096F0005C5AC6F8605A5A600FB0BDEC028BBDE8E8
:10970000F08F202206A9384636F0F4F96C4912226F
:1097100006A85BF0A1FC0090002840F08B80AF42CF
:109720001DD068490C20621C00FB0414CA4666491F
:109730000192204605F0F2F901214AF84C4BC9E9A3
:1097400002155849C9F82810019AD9F81C10A7EB3E
:10975000050BC9E904BBC9E908111446D1464F4BB2
:10976000D3F8B020C9F81C203D4612220EAB501C85
:109770001A44564B12F8201C18F8032091425CD171
:1097800008F10108B8F1150F59D1202206A9284483
:1097900036F0B0F9002505AA4D4906A85BF0B3FBE9
:1097A00005AACDE9025508EE102A0195AA46AB4656
:1097B00038B30BF1FF32042A04D8DFE802F00F13AC
:1097C000171B1F0005F0E4FE824618EE102A4049E0
:1097D00000200BF1010B5BF096FBE9E705F0D8FEEA
:1097E0000190F2E705F0D4FE0290EEE705F0D0FE1E
:1097F0000390EAE705F0CCFE0546E6E705F0C8FE73
:109800000090BAF1000F12D0DDE90123AAF2BC7A70
:1098100043EA4210039B40EA4A2A680140EAC32017
:10982000009B40EA630040EA0A40C9F81C00642C2F
:109830002ED03D4607F50067B5E64FF0000820281A
:1098400008D12035AE42F2DB024606A9284636F0A2
:1098500051F90020024689E7AF4219D0194A1A4946
:10986000A7EB05080C2707FB0427013422463846DE
:1098700005F054F90122C9E902250A4AC9F828204D
:10988000D9F81C20C9F80070C9E90488C9E9082280
:10989000251D002C7FF48EAE0424ABE600000020D2
:1098A0001FFD060879950008E45E00202CFD0608DF
:1098B000D4610608C016002039FD0608F0200020FB
:1098C000E3FC0608B8290020F6FC060804FD06089B
:1098D0001AFD0608146000209E68C3F840C007F116
:1098E000FF3E7645C3E911CCC3F83CC005D1002F3B
:1098F0003FF402AF53F80C0C374607F1010E7645E2
:1099000008D10679002E3FF4F7AE43641864774619
:109910001846B0E6BE427FF4EFAE002E3FF4ECAE48
:10992000D0F840E0DEF83C700137CEF83C70C3F868
:1099300040E08364B646EAE7107903F1FF3CA0B14A
:109940001363D36B5B011ABF03F6FF731B0B012379
:109950006344C2E90466C2E90D33D2E90D03181A63
:109960000144013301344C328CE61769136367B14B
:1099700007F6FF773F0B50696744576338B100F62D
:10998000FF70000B60449063E7E70127F3E70120D5
:10999000F8E701229BE60F49D1F8883043F47003C1
:1099A000C1F888300C4B1A68002042F001021A609E
:1099B00098601A6822F0847222F480321A60074A92
:1099C0005A601A6822F480221A60D860044B8B60B7
:1099D000704700BF00ED00E0003802401030002466
:1099E0000000000870472DE9F041476906468846A7
:1099F000002F59D10368C3F30D0515B3D8F80080C3
:109A00003568FEF7E5FB092840F08780444C236960
:109A100023F440732361236943F4007323612369B2
:109A200043F001032361C5F80080FEF7D1FB2369F1
:109A3000092823F0010323616FD1336804333360B5
:109A400032E0384A934229D302F58042934224D32C
:109A500002F5804293422AD3334A934229D902F530
:109A60008032934227D902F50032934225D902F57C
:109A70000032934223D902F50032934221D902F5F4
:109A8000003293421FD902F5802293421DD9B3F1CF
:109A9000016F1CD305200AF059FD0825FEF798FB3D
:109AA000092816D04FF0FF373846BDE8F081102561
:109AB000F4E71825F2E72025F0E72825EEE7302522
:109AC000ECE73825EAE74025E8E74825E6E75825AA
:109AD000E4E7134C236923F440732361236943F4BF
:109AE00000732361236923F0F803236123691D4375
:109AF00045F002052561236943F480332361FEF7B5
:109B000067FB236923F0020323612369092823F0FB
:109B1000F80323613FF472AFC4E76FF00107C3E7B6
:109B2000003C024000400008FFFF00080028ACBFD6
:109B300000F16040064B4FEA0111ACBF00F56140F7
:109B400000F00F00C9B2B4BF195480F80013704779
:109B500014ED00E02DE9F0479846424B914603EBA7
:109B600080020546D2F84042002C79D003F51873E4
:109B7000636004F13E03A36104F59F73E3614FF456
:109B80008073C4E90433236894F83D00E160A36363
:109B900007F0E6FD064694F8440294F83CA0271D21
:109BA00008B152F099FD94F8450208B152F094FDC5
:109BB000D4F840321BB12C4A116B0B43136318F0DD
:109BC000080F2CD00135EDB21EB14FF4E163F380E4
:109BD000357218F0100F94F846221AD00221304640
:109BE00007F0BAFDD4F8481294F94702FFF79EFF38
:109BF00094F9473294F84722002B07DB02F01F014B
:109C000001228A405B09194941F823203846BDE802
:109C1000F08718F0200F14BF12213221DFE719F06E
:109C2000020F0CD06B1CDBB21EB14FF4A162F280AC
:109C3000337294F846220221304607F08DFD19F068
:109C4000010FCFD0504607F08BFD0135EDB218B1B2
:109C50004FF4C163C380057294F846220221BFE726
:109C60002746D3E75C6106080038024000E100E0C7
:109C70000148FEF702BA00BFB80000200148FEF715
:109C8000FCB900BF040300202DE9F0470646006838
:109C9000FEF738FA0D28054608DD1F4A0021052089
:109CA00004F052FF00242046BDE8F0871B4F07EB6D
:109CB00080094FEA8008D9F8B0A6BAF1000F1CD18C
:109CC0000921642005F00CF80446C9F8B00628B94B
:109CD0000146134A052004F037FFE4E764225146A9
:109CE0005BF06BF90F48D9F8B0362DB200EBC50523
:109CF000C3E90053DB615B63DB6447447179D7F8E8
:109D0000B046182000FB014300221C46C3E9032291
:109D10009E601A750434C6E741FD0608B827002086
:109D200066FD06085C61060870B5002828D04C68FE
:109D30004CB9426815685679AB8902229BB2B24091
:109D400023EA0203AB818A683AB943681D68AB898C
:109D500023F001031B041B0CAB81816044B14468F8
:109D6000216864798D890223A3402B439BB28B81A8
:109D700032B143681A6893899BB243F0010393811F
:109D800070BD0B4B30B51A4600241D79854208D1B1
:109D9000DD68294203D0142000FB042030BD0029D7
:109DA000F9D00134092C03F11403EED10020F5E7BA
:109DB0004C05002038B503681B681C68254B03F56B
:109DC000C06393ED007A07EE902AB8EE477AF8EE7A
:109DD000677A013987EE270A8DB2DFED1F7A30EE00
:109DE000270A57F0B7FF1D4A23880138944280B2F2
:109DF0009BB212D002F5806294420ED0B4F1804F33
:109E00000BD0A2F58032944207D002F580629442D2
:109E100003D002F58062944202D123F070039BB21A
:109E20000F4A944206D002F5806294421CBF23F48C
:109E300040739BB22380094BE5629C42208503D08E
:109E400003F580639C4201D1002323860123A38272
:109E500038BD00BF000000200AD7233C00000140AD
:109E60000010004010B50446FFF7A4FF23681B68EC
:109E7000587990B1032140B2FFF758FE23681B6860
:109E80005A7993F90530002B07DB02F01F010122FC
:109E90008A405B09104941F8232023681B689879A0
:109EA00090B1032140B2FFF741FE23681B689A7905
:109EB00093F90630002B07DB02F01F0101228A40D4
:109EC0005B09054941F8232063681A6813889BB22F
:109ED00043F00103138010BD00E100E070B5466857
:109EE0004D4C73792344002993F8905214BF0020FD
:109EF0000220012304F5257454F823108A4225D248
:109F00005A1E336892B2198C2DBB21F0010109044D
:109F1000090C1984198B1C8C89B221F0F301A4B2AD
:109F200041EA021224F00A0192B2084342F001020F
:109F300040F001001A8318841A8B22F00C021204DC
:109F4000120C1A831A8B92B21A8370BD0133102B34
:109F5000D2D10F22D5E7042D1CD121F01001090424
:109F6000090C19841C8B198C24F44074240589B2C3
:109F7000240D44EA023221F0A00192B241EA00101D
:109F800042F4807240F010001A8318841A8B22F475
:109F90004062D4E7082D21D121F480710904090C15
:109FA0001984998B1C8C89B221F0F301A4B241EA87
:109FB000021224F4206192B241EA002042F0010230
:109FC00040F480709A8318849A8B22F00C02120459
:109FD000120C9A839A8B92B29A83B6E721F480513D
:109FE0000904090C1984998B1C8C21F44071090512
:109FF000090D41EA023245F6FF71214092B241EA71
:10A00000003042F4807240F480509A8318849A8B16
:10A0100022F44062DBE700BF5C6106082DE9F043F3
:10A020004568A87910F0040300F002020BD000206C
:10A0300017468046042406466B79032B49D8DFE88F
:10A0400003F0094A89C990464FF480701F461C46A8
:10A050000126F1E72D682B8C23F001031B041B0C58
:10A060002B84B5F820C0B5F804902B8B23F0730334
:10A070001B041B0C43F0600E2CF0020C6E4B4FEADD
:10A080000C4C4FEA1C4C48EA06069D421FFA89F91F
:10A090004CEA060C03D003F580639D420AD14FF6CB
:10A0A000F3730CEA03033B4329F4407943EA040CBD
:10A0B00040EA0909A5F80490A5F818E06963A5F835
:10A0C00020C02B8B23F008031B041B0C43F0080358
:10A0D0002B83BDE8F0832D682B8C23F010031B0429
:10A0E0001B0C2B842A8CB5F804E0B5F818C0524B31
:10A0F0002CF4E64C22F020024FEA0C4C12044FEAFA
:10A100001C4C120C48EA06069D421FFA8EFE4CF4C7
:10A11000C04C42EA061203D003F580639D420BD186
:10A1200022F0800242EA071222F040022EF4406E32
:10A1300042EA04124EEA800EA5F804E0A5F818C021
:10A14000A9632A842B8B23F400631B041B0C43F4A8
:10A150000063BDE72D682B8C23F480731B041B0C5C
:10A160002B842A8CB5F804E0B5F81CC022F40073E7
:10A170002CF0730C304A4FEA0C4C1B044FEA1C4C79
:10A180001B0C48EA060695421FFA8EFE4CF0600C46
:10A1900043EA062303D002F5806295420BD123F4F3
:10A1A000006343EA072323F480632EF4405E43EA0E
:10A1B00004234EEA001EA5F804E0A5F81CC0E963DC
:10A1C0002B84AB8B23F008031B041B0C43F0080308
:10A1D000AB837EE72C68238C23F480531B041B0C79
:10A1E0002384258CA288A38B25F400552D0448EAEE
:10A1F00006062D0C23F4E64345EA06350E4E1B04F5
:10A200001B0CB44292B243F4C04303D006F58066FF
:10A21000B44203D122F4804242EA8012A280A38396
:10A2200021642584A38B23F400631B041B0C43F4DB
:10A230000063A3834DE700BF0000014043685A79E3
:10A24000032A0FD8DFE802F00205080B1868343043
:10A25000704718683830704718683C307047186885
:10A26000403070470020704710B543681A6858792D
:10A27000084B0344012093F89042138CA0409BB2FA
:10A2800023EA00031384138CA140194389B211847B
:10A2900010BD00BF5C6106080121E5E7F0B5EFF3F2
:10A2A0001184102383F31288C568AA68136823F009
:10A2B00001031360426816685779114AB38902EBAB
:10A2C00047029BB2B2F8702023EA02032A69B381E5
:10A2D0001F2A4FF020036D6885BF203A93409340BA
:10A2E000EB6098BFAB60E3B283F31188C3689B68EF
:10A2F00059601A6842F001021A6001230374F0BD2C
:10A300005C6106080268137D012B04BF02231375EC
:10A3100092F82C100CBF4FF400730023012904BFE6
:10A32000022182F82C1092F8441008BF43F4806395
:10A33000012904BF022182F8441092F85C1008BF82
:10A3400043F4006301290DD1022182F85C1043F42B
:10A3500080534268116800224A628A8992B213438C
:10A360008B8101E0002BF4D17047034B0348D3F8F5
:10A37000B016FEF7BEB900BFB827002000000140AC
:10A3800010B5064C0648D4F8B016FEF7B2F9D4F86A
:10A39000D0160448BDE81040FEF7ABB9B82700203E
:10A3A000000001400040014010B5064C0648D4F8BA
:10A3B000B016FEF79EF9D4F8D4160448BDE8104054
:10A3C000FEF797B9B8270020000001400044014083
:10A3D00010B5064C0648D4F8B016FEF78AF9D4F842
:10A3E000D8160448BDE81040FEF783B9B82700200E
:10A3F0000000014000480140034B4FF08040D3F87B
:10A40000B416FEF776B900BFB8270020024B034808
:10A41000D3F8B816FEF76DB9B82700200004004045
:10A42000024B0348D3F8BC16FEF763B9B8270020E7
:10A4300000080040024B0348D3F8C016FEF759B994
:10A44000B8270020000C00400348D0F8103613B1A4
:10A4500000F2046018477047000000200348D0F85D
:10A46000303613B100F22460184770470000002016
:10A470000348D0F8503613B100F2446018477047D3
:10A48000000000200348D0F8703613B100F2646079
:10A4900018477047000000200348D0F8903613B1E9
:10A4A00000F2846018477047000000200348D0F88D
:10A4B000B03613B100F2A4601847704700000020C6
:10A4C0000348D0F8D03613B100F2C4601847704783
:10A4D000000000200348D0F8F03613B100F2E46029
:10A4E00018477047000000200348D0F8103713B118
:10A4F00000F2047018477047000000200348D0F8AD
:10A50000303713B100F22470184770470000002064
:10A510000348D0F8503713B100F244701847704721
:10A52000000000200348D0F8703713B100F26470C7
:10A5300018477047000000200348D0F8903713B147
:10A5400000F2847018477047000000200348D0F8DC
:10A55000B03713B100F2A470184770470000002014
:10A560000348D0F8D03713B100F2C47018477047D1
:10A57000000000200348D0F8F03713B100F2E47077
:10A580001847704700000020036823F001030360B0
:10A590000023036043608360C36003612123436140
:10A5A0002A4B984203D13D2243F8082C7047284B90
:10A5B000984204D14FF4746243F8202C7047254B25
:10A5C000984204D14FF4741243F8382C7047224B50
:10A5D000984204D14FF0746243F8502C70471F4BDF
:10A5E000984203D11E4A43F8642C70471D4B984291
:10A5F00003D11D4A43F87C2C70471C4B984203D171
:10A600001B4A43F8942C70471A4B984204D14FF0E0
:10A610003D5243F8AC2C17E0174B9842C3D0174B70
:10A620009842C7D0164B9842CCD0164B9842D1D006
:10A63000154B9842D6D0154B9842DAD0144B98421D
:10A64000DED0144B9842E2D0704700BF1060024049
:10A650002860024040600240586002407060024042
:10A660003D00002088600240400F0020A0600240B2
:10A6700000003D20B860024010640240286402409F
:10A6800040640240586402407064024088640240A2
:10A69000A0640240B86402402DE9F0410022012686
:10A6A00003250B6806FA02FC3CEA030331D1036878
:10A6B000540005FA04FE23EA0E0303600B79D0F878
:10A6C00000806FEA0E0703FA04FE013B4EEA080E13
:10A6D000012BC0F800E011D883681F4087604B79D8
:10A6E0008768A3403B438360436823EA0C034360CD
:10A6F0008B79476893409BB23B434360C36805FA3C
:10A7000004F723EA0703C360CB79C768A3403B4340
:10A71000C3600132102AC4D1BDE8F081204A936899
:10A7200003F00C03042B10B520D0082B20D01D4BB8
:10A730001B4C0360A3681C4AC3F30313134493F830
:10A7400004180368CB404360A168C1F3822111441F
:10A7500091F8041823FA01F18160A168C1F3423134
:10A760000A4492F80428D340C36010BD0F4BDFE7C2
:10A770005368516813F4800F01F03F01536814BF10
:10A780000A4A084AB2FBF1F1054A5268C2F3014293
:10A79000C3F3881301324B435200B3FBF2F3C7E714
:10A7A000003802400024F4000000002040787D01C1
:10A7B000F0B5446B8668A38923F400531B041B0C7B
:10A7C000A3818279278A0546BFB2100312F0040FD5
:10A7D0004FEA022100F400506A7927F4405740EA1A
:10A7E0000700208214BF4FF4805C4FF0000C12F081
:10A7F000010F0CBF002304239207A28922F4B05258
:10A8000001F4806122F00C0248BF43F0080341EAE2
:10A810000C0112040B43120C1A43A281A38A23F4E5
:10A8200040731B041B0C85B0A3826846FFF776FFBC
:10A83000214B9C4203D003F580639C423AD1039B99
:10A84000A2891921170401FB03F34FF064014CBFE7
:10A850007600B600B3FBF6F3B3FBF1F001FB103367
:10A860000201A08900044BBFDB001B0132333233ED
:10A870004BBFB3FBF1F3B3FBF1F303F0070303F0BA
:10A880000F0313439BB223816A6BAB7913F0080F5C
:10A89000938A0BBF23F008039BB21B0443F0080309
:10A8A00008BF1B0C938293899BB243F4005393819E
:10A8B00005B0F0BD029BC3E7001001402DE9F8434D
:10A8C0001E46204B9DF820509DF8247098428946E2
:10A8D00090462CD13B462A4631460020FFF73AF9F4
:10A8E00004460020C4E90700C4E90900C4E90B9844
:10A8F0006571A660A7712046FFF75AFFEA0707D5E2
:10A90000636B4FF6DF721A80DA6842F02002DA6079
:10A91000626BAB0742BFD36843F08003D360938977
:10A920009BB243F4005393812046BDE8F883064B65
:10A93000984204D13B462A4631460120CEE7002406
:10A94000F2E700BF001001400044004081602FE7A3
:10A9500041712DE72DE9F043634F07EBC00985B046
:10A9600005464FEAC00899F8180806F0F9FE0646B1
:10A9700099F8190806F0F4FE044699F81A0851F0FF
:10A98000ABFE6B1CDBB21EB140F60D12F2803372CF
:10A990001CB140F60D22E280237204223A21304697
:10A9A00006F0DAFE204604223A2106F0D5FE07EB37
:10A9B0000803D3F814484D4B9C4261D103F5F233A0
:10A9C0001A6A42F400121A621A6A22F400121A6217
:10A9D000474497F81B38022B6CD0454F454A032B50
:10A9E00008BF1746A68826F03F0668463604FFF7DC
:10A9F00095FE360C029A404BB2FBF3F398B2064335
:10AA0000A680218821F001010904090C21803B491D
:10AA10008F4251D1374BB2FBF3F2013092B2042A8C
:10AA200080B238BF04222084A28323889BB243F0E3
:10AA300001032380238823F4816323F002031B0492
:10AA40001B0C43F4806323804FF4804323812388CD
:10AA500023F080031B041B0C238023889BB243F04C
:10AA600001032380264B03EB4513012283F8E926DB
:10AA7000002283F8E85683F8EA2605B0BDE8F083A3
:10AA8000204B9C4209D103F5F0331A6A42F480024C
:10AA90001A621A6A22F4800299E71B4B9C4297D1F2
:10AAA00003F5EE331A6A42F400021A621A6A22F4BB
:10AAB00000028CE7114F95E707EB4707B2FBF7F26F
:10AAC00091B2C2F30B020AB941F0010141F4004214
:10AAD0004FF496714B434FF47A71B3FBF1F30133AA
:10AAE0009BB22384A0E700BF000000200054004078
:10AAF00000350C00400D030040420F00A08601000D
:10AB0000B827002000580040005C00402DE9F047C5
:10AB1000BC4E440106EB401909F0CEFC99F9E82639
:10AB2000B94B8846D10003EBC2020746D2F814584D
:10AB300099F8EA26013A142A00F28380DFE812F03D
:10AB400079008900A200BB00C900D300DF00F80033
:10AB500006010F011D0170018F01B9012A023E0299
:10AB600050025C027002930215005F184FF0090A50
:10AB700097F8180806F0F4FD054697F8190806F04E
:10AB8000EFFDB6F8483701339BB207462846A6F8D2
:10AB9000483705F010FC384605F00DFC1121284619
:10ABA00006F0B5FD1121384606F0B1FD4FF06508FD
:10ABB00003E00520002109F0ADFC284605F0F2FB7A
:10ABC00010B9B8F10108F4D1284606F09BFD002128
:10ABD000052009F09FFC284605F0EDFB052000212B
:10ABE00009F098FCBAF1010AE0D1284606F08AFD86
:10ABF0000021052009F08EFC384606F083FD002177
:10AC0000052009F087FC284605F0D5FB052000212A
:10AC100009F080FC384605F0CEFB331993F9E806BD
:10AC2000431C01D0FFF796FE3319002283F8EA2671
:10AC300007E02B8813F4007340F0ED81321982F89D
:10AC4000EA36331993F8EA36002B7FF465AFBDE896
:10AC5000F0872B8823F400631B041B0C2B802B88AC
:10AC60009BB243F480632B802B889BB243F48073A8
:10AC70002B803319032283F8EA26644B1A191F51DB
:10AC8000C2F8048062492846FDF7B3FA002800F0B4
:10AC9000C281331993F8FA265AB993F8FB26FF2A92
:10ACA00004D193F8F8260AB10A22BFE73319042227
:10ACB000BCE70F22BAE7321992F8F93603F0FE0327
:10ACC0002B82052382F8EA36504B1A191F51C2F81D
:10ACD000048050492846FDF78CFA002800F0938143
:10ACE00033190622A2E7331993F8FB262A8207229A
:10ACF00083F8EA26454B1A191F51C2F804804649C9
:10AD00002846FDF776FA002800F07D813219D2F846
:10AD1000FC365BB92B889BB243F400732B803B4B12
:10AD200019191F51C1F80480012388E7082386E719
:10AD30002B889BB243F480732B803319092283F84C
:10AD4000EA26324B1A191F51C2F8048030492846AE
:10AD5000FDF74FFA002800F05E813319A4E732199D
:10AD600092F8F93643F001032B820B2382F8EA367E
:10AD7000264B1A191F51C2F8048028492846FDF7AE
:10AD800038FA002800F03F813219D2F8FC36012B46
:10AD90001CD12B8823F480631B041B0C2B80EFF346
:10ADA0001181102383F312882B8B2B889BB243F4E1
:10ADB00000732B80CBB283F311880C2382F8EA3620
:10ADC000124B1A191F51C2F804803AE7022B15D111
:10ADD0002B889BB243F400632B80EFF31181102387
:10ADE00083F312882B8B2B8823F480631B041B0CAA
:10ADF0002B80CBB283F311880D23DFE72B8B0E233F
:10AE0000DCE700BFB827002000000020A82E0020AB
:10AE10000100030082000700840007000200030015
:10AE200098492846FDF7F0F9974A002800F0A280DB
:10AE30003319D3F80017481CC3F80007288A087094
:10AE4000D3F8FC1601391019C3F8FC16012117516B
:10AE500083F80417C0F8048083F8EA16F1E68B49FA
:10AE60002846FDF7D1F9884A002800F08380EFF3E7
:10AE70001181102383F312882B889BB243F4007353
:10AE80002B803319C9B2D3F8000700F1010CC3F8C5
:10AE900000C7B5F810C080F800C081F31188D3F85E
:10AEA0000017481CC3F80007288A08706FF00101DA
:10AEB000C9E776492846FDF7A7F9734A002859D013
:10AEC0003319D3F8FC16032930D1298821F4806185
:10AED0000904090C2980EFF31180102181F31288F5
:10AEE000D3F8001701F1010CC3F800C7B5F810C082
:10AEF00081F800C0298889B241F400712980C1B26B
:10AF000081F31188D3F80017481CC3F80007288A7A
:10AF10000870D3F8FC160239C3F8FC160C2183F82C
:10AF2000EA1613191751C3F804808AE6022914D8C7
:10AF3000298821F480610904090C2980298889B2B3
:10AF400041F400712980298A1751002183F80417E0
:10AF50001119C1F80480012268E6D3F80017481CD3
:10AF6000C3F80007288A0870D3F8FC160139C3F823
:10AF7000FC16D6E7131910595968381A42F21073A3
:10AF800068EB0108984278F10003FFF45AAE3319D8
:10AF900015224BE62B8823F4806332191B041B0C0B
:10AFA0002B8092F8F93603F0FE032B82102382F8EF
:10AFB000EA36354B1A191F51C2F804803449284625
:10AFC000FDF717F9F8B1331993F8FB26FF2A04D1DE
:10AFD00093F8F8260AB1132228E63319112225E640
:10AFE000331993F8FB262A82122283F8EA26264B8D
:10AFF0001A191F51C2F8048026492846FDF7F9F8AE
:10B0000008B13319E7E724492846FDF7FDF810B1E8
:10B01000331914220AE61C4B1A1918595168ACE767
:10B0200033191949D3F8FC2682B1D3F80007013A45
:10B0300010F801CBA5F810C0C3F8FC260A190F516F
:10B04000C3F80007C2F804801222EFE52A8892B202
:10B0500042F400722A800A190F51C2F804800122BA
:10B0600083F80427E2E52B889BB243F400732B801E
:10B070004FF6FF33AB82044B1A191F51C2F80480FC
:10B08000331968E740000010A82E002004000010CB
:10B0900082000700840007000004001038B5114C3E
:10B0A00004EB401494F8E956D5B1C4F8FC36049B7F
:10B0B000C4F80037002384F804370223490084F8D9
:10B0C000FB2684F8EA3601229DF8143084F8F9163C
:10B0D00084F8FA2684F8F836FFF718FD94F8045738
:10B0E000284638BDB827002038B5114C04EB401471
:10B0F00094F8E956CDB1C4F8FC36049BC4F8003787
:10B100000223490084F8FB2684F8EA3600229DF8E1
:10B11000143084F8F91684F8FA2684F8042784F8A1
:10B12000F836FFF7F3FC94F80457284638BD00BF03
:10B13000B8270020F0B587B0002300930193744B2B
:10B140001A6842F480321A601A6802F400320192DE
:10B15000009A01320092019A1AB9009AB2F5A04FF2
:10B16000F2D11B6813F4003318BF01230193019B34
:10B17000012B40F0B180664B66491A6C42F0805258
:10B180001A640A6842F440420A609A689A609A68AF
:10B190009A609A6842F480529A605F4A5A601A68CC
:10B1A00042F080721A601A689201FCD55B4A40F244
:10B1B000027111609A6822F003029A609A6842F064
:10B1C00002029A60524A936803F00C03082BFAD1EA
:10B1D0009368534C03F00C03042B7FD0082B7FD0D3
:10B1E000504BC4F800364A4B4F4D9A684F48C2F353
:10B1F00003122244002692F82C18D4F80026CA40E4
:10B20000C4F800264A4AEA605A6F4A4AAA605A6B52
:10B2100022F080025A635A6F42F080725A67196BAB
:10B22000454A0A431A635A6B5A631A6C42F08752B2
:10B2300042F4F61242F41F6242F00F021A64596C93
:10B240003E4A0A435A6402A948F2FF73CDE9023626
:10B250004FF6FF77FFF720FA00F580600297FFF7BF
:10B260001BFA00F580600297FFF716FA00F5806080
:10B27000FFF712FA00F58060FFF70EFA0846FFF7B5
:10B280004DFA029B2E4AB3FBF2F32E4AC2F84C371A
:10B29000D5F8FC302C4A43F08073C5F8FC302B4BBA
:10B2A000C3F8B02F5E601A6842F001021A60D4F849
:10B2B00000364FF47A72B3FBF2F3013BB3F1807FB7
:10B2C00008D24FF0E0225361F02385F823300723A2
:10B2D0009661136107B0F0BD00BFFDE71C4B80E72E
:10B2E0005368516813F4800F01F03F01536814BF95
:10B2F000174A0C4AB2FBF1F1054A5268C2F3014207
:10B30000C3F3881301324B435200B3FBF2F368E7F7
:10B310000038024000700040196C4109003C0240B6
:10B32000000000200024F40000ED00E000000240D6
:10B330000003FA05000000081F906700335707005C
:10B3400040420F00B827002055CEACC5001000E0E9
:10B3500040787D0182B000230193054B0193019B4E
:10B3600003EB80000190019B196002B0704700BFA1
:10B370005028004082B000230193054B0193019BAC
:10B3800003EB80000190019B186802B0704700BF7A
:10B3900050280040436D064A1A61C278012A06D13E
:10B3A00000F2CC5058611A684FF080221A60704742
:10B3B0001800086038B5044600296FD190F81131A3
:10B3C000022B2AD1D0F83821D0F824118A4232D960
:10B3D000C378012B04BFD0F828315B18A2EB01021F
:10B3E00008BFC0F828314FF48071D0F82831C0F878
:10B3F0003821002592B2A0F81C11C0F82C31C0F8F9
:10B400003451C0F8302100F58E7152F0A9FF2B465F
:10B410002A462946204653F0B9F894F81631012BF4
:10B4200007D1244A2369D2F884215A60002384F882
:10B430001631002038BDD0F83C31B3FBF1F501FBEB
:10B440001535A5B9994212D8D0F8402193420ED2B1
:10B450004FF48073C0E94A55C0E94C55A0F81C313F
:10B4600000F58E7152F07CFFC4F84051CFE7D4F85C
:10B47000E435DB682BB194F81221032A01D1204670
:10B480009847052384F81131002320461A461946AF
:10B4900053F07CF82046FFF77DFFBEE7D0F8E43597
:10B4A0005B69002BC5D090F81221032AC1D19847BF
:10B4B000BFE700BFB827002070477047704710B53E
:10B4C000114C94F85A37CBB14FF0E022D2F8103D2E
:10B4D00023F00603C2F8103DFEF75DFA94F85A37E0
:10B4E00063B1D4F860379B68DB0707D5D4F85C28D4
:10B4F000136823F0030161F307031360034B4FF458
:10B5000080225A6110BD00BFB8270020003C0140D6
:10B510002DE9F04F974CD4F85C375A69D0078DB0BD
:10B5200000F1A5825A699B691340019300F09F8244
:10B53000C3F307430293019B190311D5D4F8603775
:10B54000DFF83C929E69DB6904F5EA6B1E40360C1D
:10B5500004F2A4774FF00008DA46002E40F016817E
:10B56000029B5A070FD5D4F86037834E9F69DB6979
:10B570001F40BFB2A6F118054FF00009A6F5ED680F
:10B58000002F40F04881019B9DF80470980741BF4F
:10B59000784BD3F85C3702225A61019B002B1BDAEF
:10B5A000744D95F85A373BB1D5F85C28136823F0F1
:10B5B000030161F307031360D5F860276F485368F0
:10B5C00023F0010353606E4BD3F854389847D5F8F5
:10B5D0005C374FF000425A61019B1905C3F30726FF
:10B5E00031D5644D00238DF81F3095F862388DF801
:10B5F0001F30634B05F5EA60D3F850389847D5F80B
:10B600005C27D5F860374FF400619B68516195F86D
:10B610005A27C2B1DA0716D595F86538012B12D131
:10B620009DF81F30032B0ED1D5F85C381A6842F014
:10B6300001021A601A6842F003021A60514A136943
:10B6400043F0060313613B070AD54A4D4C4B05F501
:10B65000EA60D3F848389847D5F85C3708225A6131
:10B66000FD0615D5434BD3F85C07826922F0100222
:10B670008261026AC2F34341022902F00F0500F021
:10B680008781062900F0AB81836943F01003836151
:10B69000F00637D5374DD5F86027D5F85C075368E5
:10B6A000002723F001035360394652F0A3FFB84648
:10B6B00095F851073B4605F5ED65FF218342C0F043
:10B6C0009C81D4F860372D484FF0FF329A614FF0DB
:10B6D0000112DA610B2262F3070762F307085F6168
:10B6E000C3F810801A686FF30A121A60FFF752FE4F
:10B6F000D4F85C3721484FF480525A61204BD3F87C
:10B700004C389847B10640F194811A4CD4F8603710
:10B71000D4F8680799680268C1F34101022906BF9D
:10B72000032161F30A026FF30A0202605A6842F4CD
:10B7300080725A6008A8FEF7F1FFD4F85C17D4F8BD
:10B740006007CB68099A6FF38D23CB6085680E483C
:10B75000C5F34105284490F8D402032840F05481F1
:10B76000002284F852274FF40072A4F854270922CB
:10B7700059E100BFB8270020202F0020082F00200B
:10B780000000002000ED00E05C610608F2073BD5F8
:10B790005FFA88F104EB8103D3F8A4379D68D4F8ED
:10B7A00060375B691D40EB0720D594F853073B6871
:10B7B0000125A8429D6007D11869DBF87C33C0F3EE
:10B7C00012001B1ACBF88C33D9F83C3850469847F6
:10B7D00094F85337012B09D1B8F1000F06D194F832
:10B7E0006138052B02D15046FFF7D4FDA80742BFB0
:10B7F0003B6802259D60290706D5D9F84438504694
:10B8000098473B6808229A6008F1010876080437D7
:10B810000BF1280BA1E6FB0777D5D8F860375FFA64
:10B8200089FA1969586B08EB8A0220FA0AFBD2F8E8
:10B8300068274FEACB1B92685FFA8BFB4BEA010B40
:10B840000BEA020B1BF0010F1ED05A6BA8484FF0F9
:10B85000010B0BFA09F122EA01025A633368C3F8BB
:10B8600008B0A44B5146D3F84038984798F853375E
:10B870005B4509D1B9F1000F06D198F86138042B66
:10B8800002D19B48FFF786FD1BF0080F1EBF3368EF
:10B890004FF0080BC3F808B01BF0100F1EBF336841
:10B8A0004FF0100BC3F808B01BF0400F1EBF3368F9
:10B8B0004FF0400BC3F808B01BF0020F1EBF3368F7
:10B8C0004FF0020BC3F808B01BF0800F1DD0D5E974
:10B8D0004C329B1AD5F82421D6F800E098F853B7DB
:10B8E000DEF81800934228BF13460333D8F86027C8
:10B8F00003920AF1320A9B0808EB8A0A80B2984246
:10B9000003D9D5E94C03984205D809F101097F080C
:10B910000436283534E6C01AD5F82431984228BFB9
:10B920001846C31C9B08BBF1000F1CD0D5F828118A
:10B93000D5F834210144C5F82811D5F83011024456
:10B940008A42DEF81800C5F83421D7D1039A95F859
:10B950001C11526B4FF0010C0CFA01F122EA0102AA
:10B9600003994A63CAE7D5F82821049282B2DAF82B
:10B970005817033292108C4605925946059A8A420E
:10B98000D4D0049A52F82120CCF800200131F5E7F8
:10B9900047F6F07111423FF477AE282101FB0531E3
:10B9A000C2F30A12D71CD3F820E8D1F8D0CABF10CE
:10B9B00000218F420DD1282101FB0533D3F8D01A85
:10B9C0001144C3F8D01AD3F8DC1A0A44C3F8DC2AAD
:10B9D0005AE6DEF800804CF821800131E9E7D3F81F
:10B9E00020180F68C3F81C7D0968C3F8201D2821A2
:10B9F00001FB0533C2F30A12E5E755F8042B916009
:10BA0000AA6B0133916059E6012084F85207402067
:10BA1000A4F85407A0F56400374CA0F56240104428
:10BA2000A04227D80E2262F38D23CB604FF400533F
:10BA30004B61029BDA060BD5304C2E4B04F5EA60C5
:10BA4000D3F858389847D4F85C374FF480125A61CD
:10BA5000029B9B060BD5294C264B04F5EA60D3F8D4
:10BA60005C389847D4F85C374FF400125A610DB037
:10BA7000BDE8F08F224CA2F57400A0F51050A04252
:10BA800001D80D22CFE71F481F4C1044A04201D21D
:10BA90000C22C8E71D4CA2F18C70A0F54340A042D7
:10BAA00001D80B22BFE71A481A4C1044A04201D219
:10BAB0000A22B8E71848194C1044A042FFF457AEC8
:10BAC000174CA2F1B770A0F55850A04201D208223D
:10BAD000A9E71448144C1044A04201D20722A2E75F
:10BAE00012481044124A904234BF062205229AE7B7
:10BAF000082F0020000000203F420F00B827002040
:10BB0000DFC810002013FBFE20D61300FF691800C9
:10BB100000D3CEFE40771B00C05BB3FEC091210076
:10BB200040AC2700C01D6AFE40E13300803C36FE79
:10BB3000E09C410070B5124D124BC5F8443D40F2F7
:10BB40000112002385F8F131A0F84421C0F85C31DE
:10BB500005F644520D23C0E95422044685F8501DD1
:10BB6000C0F8583100F5A27152F077FC05F5E87283
:10BB700020461F23BDE87040012152F007BD00BFE1
:10BB8000B82700205553425310B5074B93F8DD11E9
:10BB900004464FF049FF002804DA20460121BDE8A1
:10BBA0001040C7E710BD00BFB8270020F8B50B78DC
:10BBB00013F0600506460C4638D0202D74D14A7823
:10BBC000FE2A05D0FF2A1CD050F05AF902252BE09E
:10BBD0004D88A5B9CF88012F11D11A060FD5334C46
:10BBE000D4F8FC319B699847C0B284F8540D30B149
:10BBF0003A4604F65451304652F004FC14E0304604
:10BC0000E2E74A88002AFAD1CD88002DF7D11B0639
:10BC1000F5D4264A012182F8F15182F8F0111F2350
:10BC200002F5E87252F0B2FC2846F8BD4B780A2BB8
:10BC300024D00B2B25D0012BF6D194F90430898820
:10BC4000C068002B22DA01F07F0152F0D3FC217989
:10BC5000164F304652F010FB022321794022304625
:10BC600052F033FB97F8F031022B12D1812130468C
:10BC700052F0D1FA002387F8F031D5E70C490122C0
:10BC8000BAE70A4B4A8883F8552DCDE752F09CFC61
:10BC9000DDE794F90420002AC6DA012BC4D0012183
:10BCA0003046FFF747FFBFE70025BDE7B827002074
:10BCB0000D35002008B5084B93F8F131022B07D061
:10BCC000033B012B02D80021FFF734FF002008BD01
:10BCD000FFF75AFFFAE700BFB827002070B52F4CD6
:10BCE00094F8F16105461EB1012E54D0002070BDBC
:10BCF000D4F8D431C4F8483DD4F8D831C4F84C3D18
:10BD0000B0F8B4331F2B0DD1D4F8D021244B9A4274
:10BD100008D194F8DD11012904D894F8DE31013BF3
:10BD20000F2B0AD9202105204FF068FE022384F84A
:10BD3000F0312846FDF734F8D8E74FF075FE0028BB
:10BD4000F7DB94F8F131013B022BCFD9B4F8561D43
:10BD5000E9B1D4F8D83184F8506D994228BF19461A
:10BD6000D4F84C3D5B1AC4F84C3D042384F8F131FF
:10BD700040F20113A5F844310A4BC5E95616C5E94E
:10BD8000543305F5A271284652F067FBAEE728460A
:10BD9000FFF7D0FEAAE7FFF7F7FEA7E7B8270020D6
:10BDA000555342435C7E00204A09012301F01F01E4
:10BDB00003FA01F150F822300B4340F8223070476B
:10BDC0004A09012301F01F0103FA01F150F8223062
:10BDD000194214BF01200020704770B50378012B71
:10BDE000044636D10369214D23B9426812B9D5F80A
:10BDF00074214260D4ED067A77EE807A013304F143
:10BE00001C062361C4ED067A304601F001FF62682A
:10BE1000D5F874319B1AA26893421AD9E06A94ED5E
:10BE20000A0A52F0B9F9D4ED057AB4EEE70AF1EE58
:10BE300010FA0FDD237B53B9D5F874212361002359
:10BE40006260A3613046BDE8704001F0DDBE0323AF
:10BE5000237070BDD4ED047AD4ED066AF8EE677AEB
:10BE6000022386EEA77A84ED067AF1E7B827002050
:10BE70002DE9F84300F11C0504460F46064600F183
:10BE80006409A84655ED017AB7EC010A77EE807A8D
:10BE9000284645ED017A183501F0BAFE4D45F1D13D
:10BEA00023692A4D626801332361D5F874319B1AE6
:10BEB000A268934247D904F13007F06A96ED0A0A66
:10BEC00052F06AF9B742D4ED057A1DD0B4EEE70A14
:10BED000F1EE10FA06F11806EFDD237B8BBBD5F8E7
:10BEE00074216260002523614046A56101F08CFE4B
:10BEF00004F13400256301F087FEA56404F14C00D1
:10BF0000BDE8F84301F080BEB4EEE70AF1EE10FAA6
:10BF1000E3DCD4ED047AD4ED066AF8EE677A022306
:10BF200086EEA77AD4ED0C6A84ED067A86EEA77ABF
:10BF3000D4ED126A84ED0C7A86EEA77A84ED127A3B
:10BF400000E003232370BDE8F88300BFB82700207A
:10BF500080EA0120082341F2210210F4004F4FEA49
:10BF6000400018BF5040013B80B2F6D1704738B551
:10BF70000C468D18AC4200D138BD14F8011BFFF7F8
:10BF8000E7FFF7E74840082310F0800F4FEA400032
:10BF900018BF80F0D500013BC0B2F5D1704710B595
:10BFA0000A440C46944200D110BD14F8011BFFF75F
:10BFB000E9FFF7E738B50A46056804460020AA42BB
:10BFC00003D36B1C2360287038BD12F8011BFFF7E8
:10BFD000D9FFF4E782B08DED010A019802B07047F5
:10BFE000C31783EA400070479FED087AC0ED020A4C
:10BFF000C7EE007A0023036030EEA77AC0ED017A25
:10C00000C0EE877AC0ED037A704700BF83F9223E05
:10C0100080ED010A704700BF90ED017AD0ED007A03
:10C02000C0ED020A30EE877AC0EE876A30EE677A9A
:10C03000E6EE877AB0EE670AC0ED007A704700BF7F
:10C0400080ED000A704700BF9FED047AC7EE007ACA
:10C0500077EEA07A80EEA70A704700BF72C7D13D85
:10C0600000230360436080ED020A70479FED047A6D
:10C07000C7EE007A77EEA07A80EEA70A704700BF7D
:10C080004E2DA63D002303604360836080ED030ACC
:10C09000704700BF80ED030A704700BFF5EEC00A8D
:10C0A000F1EE10FA06DCF0EE407A80ED000AB0EE18
:10C0B000670A704760EE810A90ED007A77EE607A49
:10C0C000F4EEC07AF1EE10FA0ADC77EE200AF4EE14
:10C0D000C00AF1EE10FA8CBFF0EE407AF0EE607A12
:10C0E000C0ED007AB0EE670A704700BF874BB3FB24
:10C0F000F2F399420DD300234FF07E520260436069
:10C100008360C36003610023836143610362C36191
:10C11000704707EE902ADFED7E6AB8EE677A07EE89
:10C12000901A27EE267AF8EE677A27EE277AFDEE48
:10C13000C77A17EE903A2033402B00F2D880DFED1B
:10C14000757AB4EEE77AF1EE10FAF0EE477A0CDD8C
:10C15000DFED715A9FED716AF0EE676AF4EEC66A20
:10C16000F1EE10FA77EEE57AF6DCDFED6D6AF4EECB
:10C17000E67AF1EE10FA0CD5DFED675A9FED696AA9
:10C18000F0EE676AF4EEC66AF1EE10FA77EEA57A81
:10C19000F6D4DFED656AF4EEE67AF1EE10FA00F31C
:10C1A0009C80DFED626AF4EEE67AF1EE10FA03D5D8
:10C1B000DFED5B6A76EEE77A27EEA76ADFED5C5A81
:10C1C000DFED5C6A9FED5C5ADFED5C4AE6EE256AC6
:10C1D000DFED5B5AA6EE265A27EE864AE6EE055AB2
:10C1E000F7EE006AE4EE257AF0EE665AE7EEA45A1E
:10C1F000E7EEE46A86EEA54ADFED4B6A77EE267A33
:10C20000BDEEE76A16EE103A2033402B68D8B4EE44
:10C21000E67AF1EE10FA0CDD9FED3F6ADFED3F6A42
:10C22000B0EE677AB4EEE67AF1EE10FA77EEC67AFF
:10C23000F6DC9FED3B7AF4EEC77AF1EE10FA0CD5FE
:10C240009FED356ADFED376AB0EE677AB4EEE67AD5
:10C25000F1EE10FA77EE867AF6D49FED337AF4EEAB
:10C26000C77AF1EE10FA47DD9FED2A7A77EE677A0A
:10C2700067EEA76A9FED2E6A9FED2E7ADFED2E4ABC
:10C280009FED2F5AA6EE867A27EEA63AE6EE874A6B
:10C29000B7EE006AA6EEA45AB6EE007AE3EE057A8F
:10C2A000F8EE003A36EE676A67EEA37A26EE077A72
:10C2B000B7EE005AC5EE256A80ED044A26EE877A6D
:10C2C00026EE866A66EEA77A80ED007A80ED016A36
:10C2D00080ED027AC0ED037A15E7DFED0E6A69E7BB
:10C2E000DFED187AB6EE007AB7EE006AE0E7B7EE57
:10C2F000004AF0EE445A7FE79FED0C7AF4EEC77ADD
:10C30000F1EE10FAB4D59FED067AAFE720A1070051
:10C3100027D4D236DB0F4940DB0FC940E4CB1641AE
:10C32000DB0F49C0E4CB16C1DB0FC93FDB0FC9BF30
:10C330009A7C2E36FAAF4FB93587083CF304353F67
:10C34000A4AA2ABE00000000D0ED056AD0ED017A53
:10C3500090ED007A90ED066AD0ED025A90ED035A06
:10C3600080ED050A66EEA77AC0ED066AE7EE007A70
:10C3700090ED077AE5EE867A90ED086AD0ED045AE2
:10C3800080ED087AE5EE477AE5EEC67AB0EE670A08
:10C39000C0ED077A704700BFD0ED057A90ED006AD6
:10C3A00090ED067AD0ED035AE6EE007A90ED016A40
:10C3B000F0EE406AA6EE267AB0EE670AD0ED047A77
:10C3C00090ED026A67EEC07AA5EEC07AE6EE267AB4
:10C3D00080ED057AC0ED067A704703685A1C02604A
:10C3E0001970704703685A1C026019707047007911
:10C3F00070470079C0F340107047007940097047DA
:10C4000090F83020034602F0FF0012B1002283F8BA
:10C41000302070474FF40063838170474FF400630E
:10C42000838170474FF4006383817047064A00237D
:10C4300052F8041B814204D00133042BF8D10020B0
:10C4400070470120704700BF603F00202DE9F04198
:10C45000334EDFF8D4E07389BEF80050B6F914000B
:10C46000B6F90E70B6F91CC0ED1A33896B43B6F9F4
:10C47000125000EBE330ED0295FBF0F505EBE335F0
:10C48000A5F57A6808FB08F42313B6F90200B6F99B
:10C490000440B56108FB00F008FB04F8B6F90C4055
:10C4A0005C43241404EB68345F43C012023400EB95
:10C4B000E727F388B6F90000A41004F500446343AD
:10C4C00007EB8007DC0B07FA0CF7DEF804300237C5
:10C4D0004CF25030A3EBA70740FA0CF37B4355BF57
:10C4E0005B00B3FBF4F3B3FBF4F35B0071B1181220
:10C4F00040F6DE34404360430A4C00145C4300EBDA
:10C50000244000F6CF6003EB20130B6022B10A2316
:10C510005D4308352D1115600120BDE8F08100BF95
:10C52000803E002043E3FFFF608E00200120704723
:10C53000012070472DE9F84F614FDFF88881B7F887
:10C5400006E0D8F8084015463A88C2EB241352009A
:10C55000C2EBE402B7F90240624303FB03F4B7F90C
:10C56000043024135C43A41304EBE224B7F90A302B
:10C57000BC610E46A4F5FA3181FB019AD81703FB82
:10C580000AF209FB0022A3FB09304FEA132CB7F98A
:10C590000830104483FB013212034CEA006C42EA7B
:10C5A00013521B031CEB030342EB202202F5004253
:10C5B000A3FB0E3C0EFB02CC4FEAEC734FEA6C027D
:10C5C00053EA6C0C4FF000006ED0B7F910B04FEA90
:10C5D000EB7E0BFB0AFC09FB0ECCABFB099B0CEBC7
:10C5E0000B0EB7F90EC08CFB01A14FEA414C4FEA8C
:10C5F0004A4111EB0909D8F80C104CEADA3C4EEB31
:10C600000C0CC1F5801E0EF00048B7F90C1048EA7A
:10C610005E0810EB09004FEACE7EBEEB00000CEB8B
:10C62000C10C68EB0C0840F6354CA0FB0C010CFB70
:10C63000081153F037F8B7F916304FEA613E4FEA68
:10C64000503C4CEAC14C03FB0EF24FEAE3790CFB81
:10C650000929A3FB0C324A4403FB0EFE0CFB02EE3D
:10C66000A3FB0C3CB7F91420E6445B0E43EACE135F
:10C6700013EB000C804602FB01F34FEAE27941EB39
:10C680006E6EA2FB082809FB00314144D00C40EA41
:10C6900041301CEB0000B7F912304EEBE141000ACB
:10C6A00040EA016000EB03100EB1000A306025B1D2
:10C6B00004EB8404803424122C600120BDE8F88F40
:10C6C000B03E0020608E00202DE9F74F534BCDE99E
:10C6D0000012534A19695389D68897891B02C91ACF
:10C6E00013896EEB0E0EA3FB010403FB0E4493882B
:10C6F000C00940EA44601B04C018A6FB013506FBD4
:10C700000E5556884FEA132343EA05634FEAC636AF
:10C710004FEAE41444F100049B19A7FB012607FB30
:10C720000E664FEAD25242EA46224FEA252545F1EB
:10C730000005F61512F5FA6C46F1000BBCF5FA6F20
:10C740007BF100074CDAA2FB02784FF0050A02FBEE
:10C7500006F908EB4909A7FB0A780AFB09884FEAA2
:10C76000570949EAC879BF08B0EB090047EA88775A
:10C7700064EB6804DB1B2B4F65EBA805BC454FF051
:10C78000FF377BEB070720DA40F6AC57D21946F1AA
:10C7900000065643A2FB027202EB46064FEAC608A9
:10C7A000FA00BA1A48EA577866EB0808101844EB02
:10C7B00008044FF00B08A7FB087208FB06267F0849
:10C7C00047EAC677DB1B65EB660501FB0EFEA1FBA6
:10C7D000011202EB4E0EC90F41EA4E01BCEB010CF7
:10C7E000009A92B10D4A5169A1FB032301FB053563
:10C7F000520D42EAC522121A4FEA6555009B65EBBD
:10C800000404D20B42EA44421A60019B0BB1C3F804
:10C8100000C0012003B0BDE8F08F00BF608E002093
:10C82000A03E002024FAFFFF01207047094B0A4870
:10C830001B6880691B1AFA2B09D811B1074B1B68BA
:10C840000B6012B1064B1B6813600120704700207B
:10C85000704700BF2C290020608E00206449002012
:10C8600068490020034B0022C3E90722C3E90922DB
:10C8700001207047608E0020084B1A68084B996AA7
:10C88000521AFA2A9FBFDA69C2861A6A5B6A9DBF8A
:10C890000287438701200020704700BF2C29002019
:10C8A000608E002012B10B0E00F8013B0B0C0370E0
:10C8B0000B0A43708170704700487047F0090020F0
:10C8C00090F85F3230B53BB990F85D1290F85E3267
:10C8D0000124DAB2914200D830BDB0F8665204FAB1
:10C8E00003F22A43A0F866220133F2E7437913F0FA
:10C8F00001031FBFD0E90732C0689B1A00F1FF3067
:10C9000014BF184018467047437913F002031FBF45
:10C91000D0E9093200699B1A00F1FF3014BF984337
:10C920001846704710B5437913F0010301460DD046
:10C93000FFF7DCFF60B10A6A4B69C8689B5C013293
:10C94000B2FBF0F400FB1422DBB20A62184610BD01
:10C950000346FBE743799B070AD5436A8269D154B2
:10C96000436A02690133B3FBF2F102FB1133436204
:10C97000704741717047D0E90920131A5842584155
:10C980007047024B1B685B68184700BF0C410020D2
:10C99000024B1B6808309B68184700BF0C41002001
:10C9A0000120704701207047012070470120704727
:10C9B00031B10C4BD3ED007AF8EEE77AC1ED007A95
:10C9C00072B1094BDFED096A1B68A3F5D543333B10
:10C9D00007EE903AF8EEE77A87EEA67A82ED007AD3
:10C9E000704700BF5C490020604900200000C84239
:10C9F0000120704701207047704700BF044B03EBD4
:10CA0000C00040F2FF739942A8BF194601867047E3
:10CA1000608E0020184B194A9B7982F88C30032BCA
:10CA200021D9191F02291AD8052B10B41DD0062BA5
:10CA300014BF4FF47A614FF47A519FED0D7B0024BF
:10CA40000F48104BC2F89C40B3FBF1F382ED287BFA
:10CA50005DF8044BC2F89000C2F8983070470A4B5A
:10CA6000C2F890307047094BFAE74FF4FA51E4E707
:10CA70000000000000000000383C0020608E002014
:10CA8000FDC9000840420F00F9C9000891CC000818
:10CA9000044B03EB8000D0F8A8300BB19B68196001
:10CAA000704700BF608E00200C4A137C7BB10C4B9A
:10CAB00093F8E81059B193F8E91059B15069002181
:10CAC000FA2883F8E910A8BF4FF0FF3070476FF0E5
:10CAD000010070476FF00200704700BFF0090020AE
:10CAE000608E00200B4B93F8EA206AB193F8EB209C
:10CAF0006AB1002283F8EB20074B9869B0F5967F66
:10CB0000A8BF4FF0FF3070476FF0010070476FF023
:10CB100002007047608E0020F0090020014B1B6866
:10CB20005B68184700410020014B1B689B68184751
:10CB300000410020014B1B68DB68184700410020C2
:10CB4000014BD869704700BFF0090020044B93F8EF
:10CB5000EC3013B1034B186A70476FF00100704757
:10CB6000608E0020F0090020024BD3F8F00007F09F
:10CB700071BB00BF608E002008B5006851F0DDF980
:10CB8000014B1861012008BD608E002008B50068C7
:10CB900051F0D3F9014B5861012008BD608E00208F
:10CBA00038B514460D46002944D0354A9FED356A04
:10CBB000D2ED3D7A344BF8EEE77AB3F91410C7EEB4
:10CBC000866A07EE901AB3F9101007EE101AF8EE05
:10CBD000E77AB8EEC77AB3F91210A6EEA77AD3EDCA
:10CBE000027AF8EEE77AE6EE877A93ED017AB8EE0C
:10CBF000C70AA6EEA70A07EE901AB3F90E10B3F90A
:10CC00000C3007EE101AF8EEE77AB8EEC77AA6EE07
:10CC1000A77A07EE903AF8EEE77AE6EE877A92ED99
:10CC20003E7AB8EEC77AC7EE066AA6EEA70A55F0B6
:10CC300091F8286014B3144BDFED126AB3F90020A9
:10CC4000B3F9023007EE102A0D4AD2ED3E7AF8EE23
:10CC5000E77AB8EEC77A87EEA60A07EE903AF8EEC2
:10CC6000E77AF6EE006A60EE277A9FED080AE7EEB3
:10CC7000267A27EE800A55F06DF82060012038BD35
:10CC8000608E00200000F04ACC3E00200000C84228
:10CC900010B50B4B03EBC00082B0C46A01916CB1BC
:10CCA00007EE901A94ED047A94ED030AF8EEE77A11
:10CCB000A7EE870A55F04EF8A368186002B010BDC1
:10CCC000608E00202DE9F0410B4DDFF830802C689C
:10CCD0006B6901271C400CB9BDE8F081B4FA84F3FC
:10CCE000C3F11F0307FA03F658F8230003689847B7
:10CCF00024EA06046E61EEE7003C0140AC370020F8
:10CD000007B58DF8070006480123D0F8FC000DF1A7
:10CD10000702002151F002FD03B05DF804FB00BFE3
:10CD2000608E002013B50C4C94F8000168B1052307
:10CD3000D4F8FC00ADF800306A46022301A951F096
:10CD4000EDFC9DF8050000F0010084F8000180F082
:10CD5000010002B010BD00BF608E002038B558B988
:10CD6000094BD3F80441094DFFF7DCFF40B1064BF6
:10CD70000022C3F8042106E0044B1C680444F2E7D7
:10CD80002B689C42F0D838BD608E00202C290020F2
:10CD900010B50020FFF7E2FF80B1094C0620FFF735
:10CDA000AFFF0123C72084F80031FFF7A9FF054B2F
:10CDB0001B6803F5A4430833C4F8043110BD00BF59
:10CDC000608E00202C29002073B5154C94F8086162
:10CDD0000146D82300250DF10100324600938DF85D
:10CDE0000450FFF75FFD2846FFF7B8FFB0B10620FB
:10CDF000FFF786FF0123AE4284F80031D4F8FC002F
:10CE000014BF052304236A46294651F087FC054BCD
:10CE10001B6803F59C530833C4F8043102B070BD9D
:10CE2000608E00202C2900202DE9F04F9B4D00261C
:10CE300005F5867C95F85011A7B00A243346E646DE
:10CE4000374605F5A47AA0E002EBC70205EB4200E5
:10CE5000C2F30726B0F8540101964607D7B25FFA2D
:10CE600080FE4FEA102B40F1C980480614D403F12C
:10CE70000209B9F18C0F41F0400100F2008126A8AF
:10CE800003F1010803444FF0040003F88C0C26ABB7
:10CE900098444B4608F88C1C019803F10208B8F13D
:10CEA0008C0F40F0020900F2EA8026A8184400F82E
:10CEB0008B9C4FF0050900F88C9C03F10409B9F133
:10CEC0008C0F00F2DC8026AEB0444FF0060608F866
:10CED0008C6C03F106084FEA8E0EB8F18C0F00F847
:10CEE000897C5FFA8EFE00F2CA8026AEB1444FF014
:10CEF000070609F88C6C00F887EC03F1080EBEF108
:10CF00008C0F00F2BC8026AEB0444FF00509019EA4
:10CF100008F88C9C00F8856C03F10A068C2E00F250
:10CF2000AE800DF19809CE444FF006080EF88C8CB7
:10CF300000F8837C03F10C078C2F00F2A0804E4494
:10CF40004FF0070006F88C0C0B334846034403F8F7
:10CF50008CBC3B465709012002F01F0600FA06F67A
:10CF60005CF82700013C20EA06004CF8270000F09E
:10CF70008980561CB6F5F07F80F0848072090CEB36
:10CF8000820ED6454FEA82077CD2DEF800004FF0D1
:10CF9000FF3206F01F0602FA06F606EA000292FACF
:10CFA000A2F2B2FA82F2D2B2202A7FF44DAF0EF191
:10CFB000040050451AD23A4AA2EB0E0727F00307A5
:10CFC0000EF1080E774401E0B8420FD00646043057
:10CFD000326892FAA2F2B2FA82F2D2B2202AF3D0E6
:10CFE000A6EB0C0612EBC6027FF530AF85F85011A8
:10CFF0001846002B48D127B0BDE8F08F4E0603D469
:10D0000001F03808F04515D021F0780103F102084D
:10D010000143B8F18C0FC9B231D826A803F1010E33
:10D0200003444FF0040003F88C0C26AB9E444346A7
:10D030000EF88C1C981C8C2821D826AE06EB030E0B
:10D04000019E0EF88B6C4FF005060EF88C6C1E1DC1
:10D050008C2E14D80DF1980840444FF0060800F8C3
:10D060008C8C0EF8897C9F1D8C2F08D826A806442E
:10D070004FF0070006F88C0C053326A866E76FF022
:10D08000004367E785F85011D5F8480103AA00214D
:10D0900051F044FB012027B0BDE8F08F608E0020E6
:10D0A000A38F0020F0B5194E154696F8082189B0D7
:10D0B00000270223BA420093CDE9061514BF0523C9
:10D0C0000423014604460DF10100CDE904378DF833
:10D0D00004700297CDF80CD0FFF7E4FB3846FFF759
:10D0E0003DFE80B10620FFF70BFE0123D6F8FC00C1
:10D0F00086F8003102A951F0E8FA054B1B680633A7
:10D10000C6F804312C44204609B0F0BD608E0020E2
:10D110002C29002070B5144E144696F8082188B0CA
:10D1200000250323AA42009314BF05230423CDE95D
:10D13000043101460DF10100CDE906548DF804508B
:10D140000295CDF80CD0FFF7ADFB2846FFF706FEA1
:10D1500038B1D6F8FC0002A951F0B7FA204608B061
:10D1600070BD0446FAE700BF608E002037B58368C3
:10D170001C686379DB0725D5A57994F85C3205F046
:10D1800001010D4603B3E06B43681A68D36AC3F329
:10D190004E03536294F86D32012B07D094F861323C
:10D1A00023B1B4F868320133A4F86832002285F064
:10D1B0000101FCF793FE0023A4F866324FF0807360
:10D1C000C4F85C3203B030BD94F85F320191012B9A
:10D1D00004BF94F85D3284F85E322046FFF770FB9E
:10D1E00094F85F22019952B9012384F85F3285EAED
:10D1F0000301E06B03B0BDE83040FCF76FBE0022D6
:10D2000084F85F22F5E700BF10B5C14C04EB800342
:10D21000D3F8A8300BB19B6819600F2822D8DFE83B
:10D2200010F022003100480063007A009100AC0049
:10D23000C300D500E400FB0016012D0144015F018D
:10D24000100008462AF076FA94F8293500F0070213
:10D2500003F01F0343EA4213C0F3C70084F82935E3
:10D2600084F82A0510BD08462AF064FA94F81635A9
:10D2700084F81505C0F3022223F00703134384F852
:10D28000163510BD08462AF055FA94F8162594F87C
:10D29000173500F01F0102F00702C0F3451023F01C
:10D2A0003F0342EAC102184384F8162584F81705A3
:10D2B00010BD08462AF03EFA94F8172594F819355F
:10D2C00000F0030102F03F0242EA811223F0010361
:10D2D000C0F380210B43C0F3870084F8172584F83E
:10D2E000180584F8193510BD08462AF023FA94F879
:10D2F000192594F81A3500F07F0102F00102C0F3FD
:10D30000C31023F00F0342EA4102184384F81925A1
:10D3100084F81A0510BD08462AF00CFA94F81A256C
:10D3200094F81B3500F00F0102F00F02C0F3061055
:10D3300023F07F0342EA0112184384F81A2584F887
:10D340001B0510BD08462AF0F5F994F81B2594F842
:10D350001D3500F0010102F07F0242EAC11223F004
:10D360000303C0F341210B43C0F3470084F81B259E
:10D3700084F81C0584F81D3510BD08462AF0DAF93A
:10D3800094F81D2594F81E3500F03F0102F00302C9
:10D39000C0F3841023F01F0342EA8102184384F88B
:10D3A0001D2584F81E0510BD08462AF0C3F994F81F
:10D3B0001E3500F0070203F01F0343EA4213C0F3D7
:10D3C000C70084F81E3584F81F0510BD08462AF0F2
:10D3D000B1F994F8213584F82005C0F3022223F036
:10D3E0000703134384F8213510BD08462AF0A2F93B
:10D3F00094F8212594F8223500F01F0102F007026D
:10D40000C0F3451023F03F0342EAC102184384F8F9
:10D41000212584F8220510BD08462AF08BF994F8DE
:10D42000222594F8243500F0030102F03F0242EA7D
:10D43000811223F00103C0F380210B43C0F3870066
:10D4400084F8222584F8230584F8243510BD084685
:10D450002AF070F994F8242594F8253500F07F011E
:10D4600002F00102C0F3C31023F00F0342EA4102AD
:10D47000184384F8242584F8250510BD08462AF0B1
:10D4800059F994F8252594F8263500F00F0102F09B
:10D490000F02C0F3061023F07F0342EA0112184383
:10D4A00084F8252584F8260510BD08462AF042F99F
:10D4B00094F8262594F8283500F0010102F07F0247
:10D4C00042EAC11223F00303C0F341210B43C0F32E
:10D4D000470084F8262584F8270584F8283510BDF0
:10D4E00008462AF027F994F8282594F8293500F001
:10D4F0003F0102F00302C0F3841023F01F0342EA4D
:10D500008102184384F8282584F8290510BD00BF3E
:10D51000608E002010B5094C94F83835012B05D0E9
:10D52000022B07D0064BC4F83C3510BD50F090F9E3
:10D53000044BF8E750F08CF9034BF4E7608E0020C1
:10D5400091CA000881D6020809D20008B5EE400A47
:10D55000F1EE10FA39D010B507EE902A2DED028BBE
:10D56000F8EE670ADFED197A034660EEA70A82B08B
:10D570000846B0EE408A144623B90191FEF734FD07
:10D58000019803E0022B0ED0032B13D0BCEEC88A07
:10D59000224618EE103A99B202B0BDEC028BBDE8FB
:10D5A0001040FEF7A3BD0191FEF74EFD0198FEF776
:10D5B00057FDE5E70191FEF759FD019802B0BDEC7A
:10D5C000028BBDE81040FEF75DBD7047BD37863564
:10D5D000B5EE400AF1EE10FA02D1044B0B60704731
:10D5E00003280CBF024B034BF8E700BF518600082D
:10D5F000BD86000899C3000890ED0E7AB5EEC07A9A
:10D60000F1EE10FA00F3978030EE607AD0ED015A17
:10D61000037867EE255A002B5BD101F00103D0EDB2
:10D62000117A002B61D077EE677AF0EE470AD0EDE1
:10D630000F6AC0ED110AF5EEC06AF1EE10FA87EE3E
:10D64000816A55DCD0ED037A26EE276AD0ED056AB3
:10D6500090ED105A60EE266A76EE857A77EEA57A1E
:10D6600077EE867AF4EEE71AF1EE10FA00F3848092
:10D67000B4EEE72AF1EE10FA8CBFB0EE670AB0EE16
:10D68000420A70EE677A90ED044AD0ED024AC0ED8E
:10D69000135A67EE847A4A07E7EE247AB0EE457AA9
:10D6A000A1EE277A80ED125A80ED146AC0ED156A5A
:10D6B00080ED160A08D5F0EEC77AF0EEC56AF4EEF2
:10D6C000E67AF1EE10FA6BD580ED107A0B0756D49E
:10D6D000704711F001034FF000020CBFF0EE607ACA
:10D6E000F0EE477A0270002B9DD177EEE07A9EE74C
:10D6F000D0ED0B7AD0ED034A80ED0C1AF5EE407AAE
:10D70000F1EE10FA04BF9FED285AC5EE267A71EEAD
