:020000040800F2
:1000000000000220B9DE0508959E00084D4E02084A
:1000100069DF050869DF050869DF050800000000E1
:10002000000000000000000000000000ADB6000865
:10003000AFB6000800000000B1B60008D1250108E5
:1000400069DF050869DF050869DF050869DF05085C
:1000500069DF050869DF0508E5040108E90401080E
:1000600069DF0508ED040108F10401085DA5000839
:1000700071A5000885A5000899A50008ADA5000890
:10008000C1A50008D5A5000869DF0508000000002B
:10009000000000000000000000000000F50401085E
:1000A00095A40008BDA40008E5A400087FA40008EA
:1000B0000DA5000821A5000835A5000869DF050881
:1000C00069DF050869DF050869DF050869DF0508DC
:1000D00069DF0508B19F0008BD9F0008000000000F
:1000E000F904010869DF0508B3B600080000000044
:1000F000000000000000000000000000E9A500086A
:100100000000000069DF050849A5000869DF05084F
:1001100000000000000000000000000000000000DF
:10012000FDA5000811A6000825A6000839A60008AC
:100130004DA60008000000000000000000000000C4
:10014000000000000000000000000000FDB60008F4
:1001500061A6000875A6000889A6000869DF0508E1
:1001600069DF050869DF05080000000000000000E5
:10017000000000000000000000000000000000007F
:100180000000000069DF050800000000000000001A
:0801900069DF050869DF0508BD
:080198005CCF0500010000002E
:1001A000704301200202000001012C009043012055
:1001B000020A000001012C00B043012002030000EC
:1001C00001012C00D0430120010B0000000077004A
:1001D000F0430120020C000000013F001044012008
:1001E00001110000000076003044012001100000E1
:1001F0000000760050440120010E0100000077004D
:1002000070440120010D010000007700904401209E
:100210000112000000007600B0440120011400002B
:1002200000001E00D0440120011A000000000D0053
:10023000F0440120011B000000002C0010450120AB
:100240000115000000000C003045012001160000DF
:1002500000000C0050450120011C000000000E00B1
:1002600070450120011D000000001E009045012086
:100270000117000000000C00B0450120011800002B
:1002800000000E00D04501200119000000000C0004
:10029000F0450120011F000000000C001046012065
:1002A0000120000000000C0030460120012901005F
:1002B0000000180050460120012100000000480005
:1002C00070460120012200000000490090460120F4
:1002D0000123000000004A00B04601200124000074
:1002E00000004B00D04601200125000000004C001A
:1002F000F04601200126000000004D0010470120BB
:100300000127000000004E003047012001280000B6
:1003100000004F0050470120012C00000000290080
:1003200070470120012D01000000290090470120A5
:10033000012E010000007000B047012001300000D4
:1003400000003100D0470120012F010000005200C1
:10035000F047012001310100000028001048012071
:10036000013201000000280030480120022A050067
:1003700000013E00504801200135000000003C0013
:0C0380007048012001380000000020003F
:10800000D0E907239A423CBFC1685218D01A704782
:10801000D0E9092300699A4238BF1218D31A0138EF
:10802000C01A7047D0E90902131A584258417047E4
:10803000036A41690246C85CD16801338B4228BF9C
:10804000002313627047436A8269D154436A02690C
:108050000133934228BF0023426B4362D36843F04D
:108060008003D3607047436B188810F010001EBF68
:108070001A889B8801207047436B99891A88890662
:1080800010B592B2044607D5900605D5E26A2AB328
:108090009888216B80B29047636B99891A8809068A
:1080A00092B210D510060ED5D4E909128A4223D017
:1080B000A169895CC9B2998021690132B2FBF1F0F2
:1080C00001FB1022A262998A1A88C90592B204D5CE
:1080D000D20744BF4FF6F7721A8010BD9B88E26941
:1080E0006169DBB28B54E369E2680133B3FBF2F1FF
:1080F00002FB1133E361CFE7DA6822F08002DA6035
:10810000E1E7036941681F2B30B54FF0200285BFBE
:10811000A3F120054C680C68AA4098BF9A402242FF
:108120001DD0826900201074D0688468206820F017
:1081300001002060546820686579094C828934F810
:10814000154092B21F2B22EA0402828188BF203B95
:108150004FF020028BBF9A409A40CA608A6030BDBF
:10816000FC4B06080E4BDA68D20310D4DA68D1064D
:108170000FD4DA68D2050ED4DA6812F0E00F0CD111
:10818000DB6813F0020F0CBF0920082070470120A4
:10819000704706207047022070470720704700BFD5
:1081A000003C024007B509238DF80730FFF7DAFFDE
:1081B0008DF807009DF80730012BF7D09DF80700D8
:1081C00003B05DF804FB838A028B9BB243EA02434F
:1081D00099430CBF01200020704782B00023019317
:1081E0000093012300900193019B63B1009A21F059
:1081F0007F4314320092009A12681A4214BF012081
:10820000002002B07047009A1832F3E770477047B9
:10821000704701207047034BD3E90003C01AC0F335
:108220000A00704708190020054AD2E900138B4262
:10823000FDD0D1180133C3F30A03087A53607047A5
:1082400008190020044BD3F8080820B1D3F8080817
:10825000431F58425841704708190020012380F8F5
:1082600049307047044BD3E90003C01AC0F30A0039
:10827000C0F50060704700BF0819002010B5D0F8A5
:10828000E83504461B699847032384F8123100201F
:1082900010BD08B590F8123180F81331042380F82E
:1082A0001231D0F8E835DB689847002008BD08B5E2
:1082B000D0F8E435DB6903B19847002008BD08B564
:1082C000D0F8E4351B6A9847002008BD08B5D0F8FF
:1082D000E4355B6A9847002008BD10B5074C20685C
:1082E000FF2808D00649D1F80C2801F5016100F0FB
:1082F00037F8FF232360002010BD00BF00000020DE
:1083000008190020432301480B8070470400002017
:10831000122301480B8070474700002004230148C6
:108320000B807047590000207047704770477047B6
:10833000704770477047054B00200522C3F8082896
:10834000C3F81808C3F81C08704700BF08190020BC
:10835000024B0020C3F80808704700BF081900202E
:10836000212838B50C461BD022282BD0202815D127
:10837000A1B1072A12D11A4DD5F81C3813B10968DA
:10838000002098472368C5F82038237985F82438D9
:10839000637985F82538A37985F82638002038BD1B
:1083A0000029FBD0072AF9D10D4BD3F820280A6009
:1083B00093F824280A7193F825284A7193F82638EF
:1083C0008B71EBE70029E9D0022AE7D1044BD3F8FF
:1083D0001838002BE2D0098800209847DEE700BF5C
:1083E0000819002030B50E4CD4E900329A1AC2F3B5
:1083F0000A020A44B2F5006F10D8014400228142FB
:1084000003D102B12360002030BDE21810F8015BF7
:1084100015720133C3F30A030122F0E70220F3E7E8
:108420000819002070477047D0ED007AD0ED036A3C
:1084300030EE677AE6EE877AB0EE670AC0ED007A32
:10844000704790ED017AB5EE407AF1EE10FAF0EE59
:10845000407A09D19FED0E7A60EE870AF7EE006A46
:1084600086EEA07A80ED017A90ED017A90ED000A17
:1084700080ED021A31EE077A77EEC07AC1EE076A14
:10848000A6EEA70AC0ED036A80ED000A704700BFA0
:10849000DB0FC940D0ED056AD0ED017A90ED026A9C
:1084A000D0ED045AB0EE407A26EEA70AD0ED007A5D
:1084B00080ED057AA7EE870AD0ED067AC0ED066A50
:1084C000A6EE270AD0ED077A90ED036AA6EE670ABA
:1084D00090ED086AC0ED087AA5EEC60A80ED070A9D
:1084E0007047B0EE407AD0ED007A90ED050AD0EDFD
:1084F000016AA7EE870AD0ED037A67EEC07AE6EE4E
:10850000877AD0ED066A76EEA77AD0ED026AC0EDE2
:10851000057AD0ED047A67EEC07AE6EE877AC0ED90
:10852000067A704703685A1C0260197070472DE97B
:10853000F04F87B083680193D0E90032511C91FB62
:10854000F3F403FB1411416000EB820181ED200A7A
:10855000B1EE400A00F18005009281ED400A00F57D
:108560008070A3F1020E4FF0010C019A6245009A4F
:1085700017DA01991A44521A92FBF3F103FB112204
:1085800005EB820500EB8200D5ED007A90ED007AD4
:1085900077EEC77AB6EE000A27EE800A07B0BDE88C
:1085A000F08F0EEB020494FBF3F103FB1144611C0A
:1085B00091FBF3F603FB161105EB840600EB840434
:1085C00094ED007A03940CEB0104D6ED007A029648
:1085D00094FBF3F603FB1644F246F14626460F469B
:1085E000A3EB0C0BD9450CDB029AD2ED007A039A6F
:1085F00092ED007ADA454EDB0CF1010CAEF1020E81
:10860000B3E7BB42D8BF002705EB8702D2ED006A73
:108610000492B342D8BF002600EB8702F4EEE76A6B
:1086200092ED006A0592F1EE10FA00EB8602D2EDAF
:10863000005A4FEA860811DDA84498ED005AF4EE7E
:10864000C56AF1EE10FA09DDB4EEE75A049AF1EECC
:1086500010FA58BFF0EE457AC2ED007AB4EEC76A60
:10866000F1EE10FA0EDDB4EEE56AF1EE10FA09DD76
:10867000F4EEC75A059AF1EE10FA58BFB0EE657ADB
:1086800082ED007A0137013609F10109B0EE467A30
:10869000F0EE667AA6E78B42D8BF002105EB810891
:1086A000D8ED006AA342D8BF0024F4EEE76A00EBDD
:1086B000810700EB8409F1EE10FA97ED006AD9ED1D
:1086C000005A4FEA840610D52E4496ED005AF4EE77
:1086D000C56AF1EE10FA08D5B4EEE75AF1EE10FAD9
:1086E000D8BFF0EE457AC8ED007AB4EEC76AF1EE75
:1086F00010FA0DD5B4EEE56AF1EE10FA08D5F4EEF5
:10870000C75AF1EE10FAD8BFB0EE657A87ED007A5D
:10871000013101340AF1010AB0EE467AF0EE667AD0
:1087200068E703690133012B036108D1DFED107A9B
:1087300080ED010A80ED000AC0ED027A704790EDED
:10874000006A07EE903A70EE466AF8EEE77A86EE37
:10875000A77AD0ED027A37EE067A30EE470A80ED3E
:10876000017AE6EE807AB0EE470AC0ED037AE1E7DF
:108770000000000003685A1C0260197070470079FD
:1087800070470079C0F34010704700794009704786
:1087900090F83C20034602F0FF0012B1002283F85B
:1087A0003C2070474FF48053838170474FF400633F
:1087B000838170474FF4006383817047064A00232A
:1087C00052F8041B814204D00133042BF8D100205D
:1087D00070470120704700BF3021002010B5064AC5
:1087E0000423002152F8044B844208BF42F8041CC1
:1087F000013BF7D110BD00BF30210020354BF0B553
:10880000B3F83808B3F84648B3F95058B3F94A7882
:10881000B3F940E8B3F95868001BB3F84448604323
:10882000B3F94E4805EBE035E40294FBF5F404EBB4
:10883000E034A4F57A60B3F93E58C3F8544800FB1D
:1088400000FC4FEA2C3C45430CFB07F700FB0EFEF7
:10885000ED12B3F9480805EBE725B3F93C780CFBBA
:1088600000F0001405EB8705B3F842C8D3F85C3874
:1088700000EB6E30B54002300235A3EBA505801049
:108880004CF2503300F5004033416B430CFB00F0D9
:108890004FEAD03055BF5B00B3FBF0F3B3FBF0F30E
:1088A0005B0071B1181240F6DE35404368430A4D53
:1088B00000145D4300EB254000F6CF6003EB20136E
:1088C0000B6022B10A235C43083424111460012098
:1088D000F0BD00BF0819002043E3FFFF01207047EF
:1088E000012070472DE9F74F624E9046B6F8643884
:1088F000D6F86028B6F974C8B6F97278B6F970B8C7
:10890000C3EB22155B00C3EBE203B6F966286D43A7
:108910005343B6F968282D135543AD1305EBE325F2
:10892000D6F880380093A5F5FA30B6F96E38C6F857
:108930007C58894680FB001EDA1703FB0EF401FB0E
:108940000244A3FB01321444B6F96C2882FB00A256
:108950001B0A120343EA046342EA1A524FEA0A3A34
:1089600013EB0A0342EB2422B6F86AA802F5004290
:108970000192A3FB0A23019A0AFB023A4FEAEA7327
:108980004FEA6A0253EA6A0A4FF000045ED087FB9E
:1089900000704FEAEC7A0CFB0EFE400401FB0AEE7D
:1089A00040EAD730ACFB011C7F047F180099F444E7
:1089B0004CEB0000C1F5801C0CF00041E71941EAC6
:1089C0005C014FEACC7CBCEB070C40F6354400EB75
:1089D000CB0061EB0001ACFB040C04FB01C155F0C2
:1089E00001FA84460746430BB6F97A084A1343EA6C
:1089F000C14300FB02FEC41703FB04EEA0FB0340CF
:108A00007044624303FB0022A4FB03431A44B6F9FB
:108A10007838640E44EAC2144FEAE37E03FB01F0A7
:108A2000E4190EFB0C00A3FB0C3738444FEAD34388
:108A300043EA403341EB6262E41842EBE042B6F9AC
:108A40007638240A44EA026404EB0314B9F1000FF7
:108A500002D0240AC9F80040B8F1000F05D005EB98
:108A6000850580352D12C8F80050012003B0BDE8FF
:108A7000F08F00BF081900200120704701207047C7
:108A80002DE9F74F8946B1499246B1F88838D1F8B7
:108A9000842891F98C08A2EB0322A2FB0243C5179C
:108AA000434304FB0533A0FB04042344B1F88A4884
:108AB000A4FB0242920442EA9432A404001943EB5C
:108AC0000203002B02DA013843F10003A04AC1F887
:108AD000A0384FEAE378C2F80480B9F1000F00F043
:108AE0001D8103FB08F4A3FB030E0EEB440E850966
:108AF00045EA8E654FEAAE1405FB08F603FB0466F3
:108B0000A5FB03543619D1F8A82802D5FF3546F144
:108B1000000691F992782D0A45EA066536124FEA69
:108B2000E77C07FB06F405FB0C44A7FB057C14EB74
:108B30000C0402D51F3744F10004B1F98DC8ACF51F
:108B4000804C4FEA8C3C7F0947EAC4670CEB641405
:108B5000019491F99148B1F98F184FEAE47B04FB35
:108B60000EFC00FB0BCCA4FB004BDC444FEA8C0C4E
:108B70004CEA947CA4003C19019FA1F5804147EB8D
:108B80000C0C4FEAE17B01FB08F703FB0B77A1FB21
:108B900003B10F447F0547EADB274FEA4B5B14EB39
:108BA0000B014CEB070CBCF1000F04DA6FF07F44B3
:108BB00009194CF1000C654C090E41EA0C214FEAF1
:108BC0002C6794F998C84FEAEC7B0CFB06F605FB82
:108BD0000B66ACFB05C5761903D51CF11F0C46F1DD
:108BE0000006B4F893B894F997584FEA5C1C4FEA22
:108BF000CB3B4CEAC66C0BEB661B05FB0EFEEE177F
:108C000000FB06EEA5FB0005AE444FEA0E1E4EEA41
:108C1000107E00011CEB0006B4F895C8ACFB0354B1
:108C20000CFB08444FEA845444EA95244FEA8555E6
:108C30004BEB0E00761940EB0400002802DA0336F5
:108C400040F10000B608A1FB0214404D46EA8076D0
:108C5000761802FB074444EBA00495F99B08C11762
:108C600000FB08F703FB0177A0FB03010F44B5F9F4
:108C700099184FEA014C10EB0C0047EBE177A0FB91
:108C8000021002FB0700002804DA41F6FF77C91939
:108C900040F10000490B41EAC041A1FB021740131B
:108CA00002FB0070002804DA40F2FF17C91940F1F6
:108CB0000000490A41EAC051711895F99C6844EBDB
:108CC0006024F517A2FB0207454306FB0755A0FBEE
:108CD0000606AD1904D54FF6FF76801945F100055B
:108CE000000C40EA0540A0FB02062D1402FB0565BE
:108CF000002D04DA10F17F02104645F10005C2098B
:108D000042EA456252184FF0190044EBE514A2FB09
:108D1000002100FB0412120CC9F80020BAF1000F68
:108D200010D01921A3FB013201FB0822002A04DA2A
:108D300043F6FF715B1842F100029B0B43EA82434A
:108D4000CAF80030012003B0BDE8F08F08190020F8
:108D5000A821002031B10A4BD3ED077AFDEEE77A66
:108D6000C1ED007A52B1064B9FED067AD3ED087A39
:108D700067EE877AFDEEE77AC2ED007A0120704750
:108D8000B42100200000C842012070470120704734
:108D900049B10D4BD3F8D0086423434348BF03F6D1
:108DA000FF731B130B6062B1074BD3F8D4386421F7
:108DB0004B434FF4F07193FBF1F303F584531A33F3
:108DC00013600120704700BF081900202DE9F74FFC
:108DD000CDE90012574AB2F8E638D2F8D818B2F8FE
:108DE000E268B2F8E8781B02C91AB2F8E4386EEB10
:108DF0000E0EA3FB010403FB0E44B2F8E038C009D9
:108E000040EA44601B04C018A6FB013506FB0E5562
:108E1000B2F8DE684FEA132343EA05634FEAC63629
:108E20004FEAE41444F100049B19A7FB012607FB59
:108E30000E664FEAD25242EA46224FEA252545F114
:108E40000005F61512F5FA6C46F1000BBCF5FA6F49
:108E50007BF1000750DA02FB06F8A2FB02794FF023
:108E6000050A09EB4809A7FB0A780AFB09884FEABB
:108E7000570949EAC879BF08B0EB090947EA88777A
:108E800064EB6804DF1B3B462B4F65EBA805BC4534
:108E90004FF0FF377BEB0707484622DA40F6AC5726
:108EA000D21946F100065643A2FB027202EB4602BB
:108EB0004FEAC208FE00BE1B48EA577862EB08087A
:108EC000361844EB08044FF00B083046A7FB087631
:108ED00008FB02627F0847EAC277DF1B3B4665EB6F
:108EE000620501FB0EFEA1FB011202EB4E02C90F4F
:108EF00041EA4201BCEB010C009A9AB10D4AD2F84A
:108F0000EC18A1FB033201FB05225B0D43EAC223EF
:108F10001B1A4FEA625262EB0402DB0B43EA424344
:108F2000009A1360019B0BB1C3F800C0012003B08D
:108F3000BDE8F08F0819002024FAFFFF2DE9F04F5B
:108F4000574B85B0CDE90112B3F8E628D3F8D8180D
:108F5000B3F8E258B3F8E8681202891AB3F8E428C3
:108F600069EB0909A2FB010402FB0944B3F8E028FC
:108F7000800940EA84604FEAD23E520480184EEBEA
:108F8000A41EA5FB012405FB0944B3F8DE58D20951
:108F900042EA44622D045219A6FB013506FB09552D
:108FA0004FEAD35343EA45234FEAE41444F1000463
:108FB000ED1513F5FA6845F10006B8F5FA6F03965A
:108FC00076F100064DDAA3FB036703FB05FC4FF0C7
:108FD0003D0B07EB4C07A6FB0BCA0BFB07AA4FEA9E
:108FE0001C1C4CEA0A7CB0EB0C0C6EEB2A1EB6196A
:108FF0007F41961B64EB070732462A4E3C46039F8F
:10900000B0454FF0FF36B74160461FDA40F6AC5628
:109010009B1945F1000503FB05F6A3FB035303EB86
:1090200046031F012E01AE1B47EA157763EB0707C6
:10903000DB00361843EA55734FEAC5054EEB070EC1
:10904000551B64EB030330462A461C4601FB09F915
:10905000A1FB011303EB4903C90F41EA4301B8EB3C
:109060000108019B9BB10E4BD3F8EC18A1FB022326
:1090700001FB0433520D42EAC322121A4FEA635332
:1090800063EB0E03D20B42EA4342019B1A60029B40
:109090000BB1C3F80080012005B0BDE8F08F00BF20
:1090A0000819002024FAFFFF01207047B0F90030B2
:1090B0005943084B994208DBB1F5000F07DA002944
:1090C000B8BFFF31081200B270470348FBE747F60C
:1090D000FF70F8E701FF7FFF0080FFFF012070476E
:1090E000054901F50F6300221A605A609A60002357
:1090F000C1F8FC380120704708190020114BD3F843
:109100000029D3F8FC18521AFA2A18D803F50F636D
:10911000D3ED007AFDEEE77A17EE902AD3ED017ACF
:10912000C286FDEEE77A17EE902AD3ED027A028727
:10913000FDEEE77A17EE903A438701207047002052
:10914000704700BF081900202DE9F843D0F81480BB
:1091500007468946B8F1000F57D10568C5F30D06DB
:1091600006B3D9F80060FFF71DF8092840F08680A3
:10917000444C236923F440732361236943F400734F
:109180002361236943F0010323612E60FFF70AF88E
:109190002369092823F0010323616FD13B6804335D
:1091A0003B6032E0384B9D4229D303F580439D421A
:1091B00024D303F580439D422AD3344B9D4229D9C1
:1091C00003F580339D4227D903F500339D4225D90D
:1091D00003F500339D4223D903F500339D4221D985
:1091E00003F500339D421FD903F580239D421DD90D
:1091F000B5F1016F1CD3052009F0ABFA0826FEF784
:10920000D1FF092816D04FF0FF384046BDE8F8835B
:109210001026F4E71826F2E72026F0E72826EEE7E6
:109220003026ECE73826EAE74026E8E74826E6E776
:109230005826E4E7134C236923F440732361236920
:1092400043F400732361236923F0F8032361236946
:10925000334343F002032361236943F480332361E2
:10926000FEF7A0FF236923F0020323612369092885
:1092700023F0F80323613FF474AFC4E76FF00108F3
:10928000C3E700BF003C024000400008FFFF0008A9
:1092900003682DE9F0410D46416813448B420446B2
:1092A00019D8AE1800F10C074FF00008B54202D1F2
:1092B0006069BDE8F08123695A1C2261234415F8D6
:1092C000011B1973042AF1D139462046FFF73CFFF0
:1092D000C4E90480EAE74FF0FF30EAE710B5074C35
:1092E00094F8090940B109F0CFF9D4F81039C01A3F
:1092F000C0F5FA5020EAE07010BD00BF0819002048
:109300002DE9F0479846444B914603EB8002054611
:109310009468002C51D02833636004F13E03A361AC
:1093200004F59F73E3614FF48073C4E90433236849
:1093300094F83D00E160A36307F00CFA064694F848
:10934000440294F83CA0271D08B150F073FB94F838
:10935000450208B150F06EFBD4F840321BB12F4AE1
:10936000116B0B43136318F0080F2FD00135EDB2CA
:109370001EB140F20673F380357218F0100F94F8A6
:1093800046221DD00221304607F0A4F9D4F8482225
:1093900094F9471294F8473212010029D2B236DB11
:1093A0001F49C81880F800235809012203F01F0341
:1093B00002FA03F341F820303C462046BDE8F0872E
:1093C00018F0200F0CBF32211221DCE719F0020F38
:1093D0000CD06B1CDBB21EB140F20652F28033722D
:1093E00094F846220221304607F074F919F0010F73
:1093F000CCD0504607F0AEF90135EDB218B140F2CD
:109400000663C380057294F846220221BCE7054931
:1094100003F00F03CA54CFE7FC4B060800380240A4
:1094200000E100E014ED00E038B514460D460029D7
:109430004BD0394B9FED397AD3F8182907EE902A93
:10944000F8EEE77AD3F81C29C7EE876A07EE902A70
:10945000D3F82429F8EEE77AC7EE875A07EE902A68
:10946000D3F82829B8EEE70A07EE902AB3F9342991
:1094700006EE102AB3F9302907EE102AB8EEC66AB4
:10948000B8EEC77AF8EEE77AA6EE867AB3F92C2919
:10949000E6EE877AA6EEA70A07EE902AB3F93229FC
:1094A000B3F92E3906EE102A07EE103AB8EEC66A66
:1094B000B8EEC77AF8EEE77AA6EE867AE6EE877A15
:1094C000A5EEA70A55F09EFC28601CB3124BDFEDF9
:1094D000136AB3F9202907EE902AD3F81C29B3F9AF
:1094E000223907EE102AB8EEC77AF8EEE77A87EE4F
:1094F000260A07EE103AB8EEC77A20EE070AB6EE53
:10950000007AA7EE870ADFED067A20EE270A55F0EB
:1095100079FC2060012038BD081900200000F04AC5
:109520000000C8422DE9F341038A8689B6B2054698
:109530000C461E404FF0004816B902B0BDE8F0815D
:10954000B6FA86F328FA03F2D24391B22982164082
:109550001B3B002C3ED0042BEED8DFE803F0373164
:109560002B250300E368EF6A23B19B6813B1B9B2FE
:10957000201D9847636A2BB19B681BB1B9B204F1F7
:109580001C009847E36B2BB19B681BB1B9B204F187
:1095900034009847636D002BCED09B68002BCBD056
:1095A000B9B204F14C0003E0E368696B5B68201D0D
:1095B0009847C1E7636AA96B5B6804F11C00F7E791
:1095C000E36BE96B5B6804F13400F1E7636D296CD0
:1095D0005B68E6E7042B06D8DFE803F00D0B09070C
:1095E0000300EB6A0193019BA6E76B6BFAE7AB6B99
:1095F000F8E7EB6BF6E72B6CF4E790F84820531C88
:109600000244DBB280F8483082F8341090F84920E8
:109610000AB1132B01D953F038BB7047002280F8F0
:10962000492053F032BB70B5124D044695F83839D5
:10963000002BFBD16618B44204D1002070BD01207C
:1096400009F072F8D5F83C39D5F840290133C3F355
:109650000A039342F3D0D5F83C3914F8012B2B447C
:1096600083F84429D5F83C390133C3F30A03C5F81C
:109670003C39E0E70819002038B50C461146FEF7E2
:10968000E1FD48B1054D002AD5F8003904DD20463A
:10969000FFF7C9FFD5F8003938BD00BF0819002011
:1096A000F0B585B0D0F8CC1590F8CC650291D0F823
:1096B000D0150391012180F8111106F01F01B0F8B7
:1096C000D22590F8CD75B0F8CE35B0F8D055C0F8A9
:1096D00040210129044600F00681022900F017818B
:1096E000002940F08E81092F5ED8DFE817F0B60020
:1096F000F1005D00C6005D0057000A005D00A90092
:1097000076001D0A022DADF806200BD0032D25D0C2
:10971000012D49D1D0F8EC351B68A0780DF1060178
:10972000984709E0D0F8E43580789B6A0DF106018E
:1097300098474570C4F8F005BDF80620002A47D0C8
:10974000BDF80E30002B43D09A4228BF1A46ADF820
:1097500006200146204653F09DF939E0DBB2052B87
:1097600022D8DFE803F003070B0F1317D0F8EC350E
:109770005B68D2E7D0F8EC359B68CEE7D0F8EC35E3
:10978000DB68CAE7D0F8EC351B69C6E7D0F8EC35E2
:109790005B69C2E7D0F8EC359B69BEE72A4303D189
:1097A00090F81211032903D1204653F0C7F80FE0B7
:1097B00003F07F05016980F8145163F30A120B6806
:1097C0001A430A6053F07AF92DB1022384F812315A
:1097D000002005B0F0BD0123F8E7D9B28A4D012978
:1097E00085F84C10E0D890F81231022B0FD0032BE3
:1097F000DAD1C1B9022380F81231D0F8E43580F80B
:1098000010115B689847204653F058F9E0E70029AB
:10981000F9D00121032380F8101180F8123120467D
:1098200053F04EF8EFE790F810110129EBD0D0F883
:10983000E4355B68984795F84C1084F81011EEE712
:10984000012AB1D190F81231022B04D0032BABD1F5
:1098500000F588717EE76D497CE790F81231023B94
:10986000012BA1D8684B00225A65D0F818210AB103
:1098700002225A65664902226CE7012B08D1C4F81E
:109880001831D4F8E43502A99B6820469847BAE716
:10989000022B9DD1EBB2002B9AD103692D0A023D18
:1098A0005A68032D12D8DFE805F0020B0D0F0223D2
:1098B00063F30612544B9A65012384F81631A2E72C
:1098C0000323F5E70423F3E70523F1E70123EFE79B
:1098D00090F81221023A012A3FF666AF012B7FF47D
:1098E00077AF0023CBE790F81231032B7FF45CAF06
:1098F000EDB2012D3FF658AFD0F8E43502A99B68D0
:109900009847BDF80E30002B7FF462AF7BE706F07E
:109910006006202EE9B205D1D0F8E43502A99B6893
:10992000984755E7012F33D0032F21D0002F7FF424
:109930004FAF90F81231022B5DD0032B7FF434AF80
:1099400015F0800F4FF028031BBF01F07F0103FBD0
:10995000010103FB010191F81E3108BF91F8763334
:109960002949003B18BF012341F85C3F0222F1E680
:1099700090F81221022A3ED0032A7FF415AF002B63
:109980007FF47FAF4A063FF47CAF52F0A5FF78E743
:1099900090F81221022A2ED0032A7FF405AF002B63
:1099A0007FF416AF11F07F023FF42DAF6DB2282384
:1099B000002DB5BF03FB020303FB010303F58E7308
:1099C00003F55D73002199701A70E90F00EB8202B4
:1099D0005970002DB4BF9269526DD978136802395D
:1099E00023F4001301298CBFC3F30071012161F33B
:1099F0001C73136045E74B063FF4EAAE52F06CFF70
:109A0000E6E606F08001F9E7002A0020502A00204F
:109A1000542A002010B5044671BB90F81131032B75
:109A20001BD1D0F89023D0F87C339A4217D9C17853
:109A3000012908BFD0F88013A2EB030204BFC918A4
:109A4000C0F88013934228BF1346C0F890239BB2FE
:109A5000D0F88023002153F0E1F8002010BDD0F8A9
:109A6000E4351B6923B190F81221032A00D19847ED
:109A7000204653F023F8F0E7D0F8E4359B69002B3B
:109A8000EBD090F81221032AE7D19847E5E770B5AB
:109A90000A7812F0600305460C4628D0202B2DD101
:109AA000CB884E78EBB112060AD51C491A463046CF
:109AB000FEF756FCE2881949284652F0EBFF0EE00B
:109AC000174A1660174A0321C2F80C3880F81111A2
:109AD000C0E9E43302F50162002153F09FF8002051
:109AE00070BD022211443046FEF73AFCF7E74B788E
:109AF0000A2B08D00B2B09D0062BF0D1284652F0A8
:109B00001DFF0220ECE708490122D6E78B7813B944
:109B1000064A1366E3E752F011FFE0E71821002040
:109B20000000002008190020602A0020002A0020E0
:109B300038B5282303FB0101074DB1F88C13044607
:109B40002846FEF74FFC204640232A46012153F0C9
:109B500065F8002038BD00BF642A0020002310B53E
:109B600019460446402252F0F7FE4022802120464A
:109B7000002352F0F1FE012384F81231D4F8E835C5
:109B8000A0785B689847002010BD38B54022044695
:109B90000223812152F0E0FE2046022340220121CF
:109BA00052F0DAFE204603230822822152F0D4FE2E
:109BB000084B0222002583F84B2083F84C500121EA
:109BC000FEF7B9FB2046044A402353F027F8284605
:109BD00038BD00BF00000020642A002038B50122F3
:109BE000044640F20113A0F844310125114653F018
:109BF00033F829462046A4F89C53002253F02CF851
:109C00004FF48173A4F86C3120462A46022153F0A8
:109C100023F8FEF79DFB002038BDF8B5224C94F8E0
:109C20003829012A03462ED1204FD7F8A45015B960
:109C300084F8385923E0402D23D8AEB2402E02D10B
:109C4000022284F83829D4F84019194A0A44C3E991
:109C5000542240F201110022A3F84411C3E95662D4
:109C600003F5A271184652F040FFD4F8403933444E
:109C7000C3F30A03AD1BC4F84039C7F8A450002051
:109C8000F8BD4026DFE7022AF9D1002540F2011293
:109C9000C0E95455C0E95655A0F8442100F5A27119
:109CA00052F023FFC4E700BF08190020002A00205B
:109CB0004C220020F8B5284FD7F8A8300F2B03F11D
:109CC000010203D0C7F8A8200020F8BD234C0023D0
:109CD000C7F8A83094F83839002BF5D1D4F84029CA
:109CE000D4F83C399A42EFD0D4F84029D4F83C3922
:109CF0009A4295BFD4F83C59D4F84059D4F8403929
:109D0000C5F5006598BFED1A402D22D8AEB2402EA1
:109D10000CBF02230123D4F8402984F83839104BB2
:109D20001344C0E9543340F201120023C0E95663E2
:109D3000A0F8442100F5A27152F0D7FED4F84039C2
:109D40003344C3F30A03AD1BC4F84039C7F8A45029
:109D5000BAE701234026DEE7002A00200819002088
:109D60004C22002008B502484FF07CFC014808BD99
:109D700011F60608AC2A002008B502484FF072FC24
:109D8000014808BD1DF60608AC2A002008B50248A7
:109D90004FF068FC014808BD22F60608AC2A0020F6
:109DA00008B502484FF05EFC014808BD2CF60608D5
:109DB000AC2A002008B502484FF054FC014808BD09
:109DC00037F60608AC2A0020024BD3F8AC0108F0A5
:109DD0001BBB00BF002A002008B5006851F03FFD02
:109DE000024BC3F8D808012008BD00BF08190020A5
:109DF00008B5006851F033FD024BC3F8EC080120B0
:109E000008BD00BF0819002010B50D4B0D4CD3F84C
:109E10000039D4F8B0011B1AFA2B06D9042022F01D
:109E200015F8002084F8B40110BD11B1D4F8B83190
:109E30000B6012B1D4F8BC3113600120F4E700BF0D
:109E400008190020002A00200E49D1F8883043F478
:109E50007003C1F888300C4B1A68002042F00102F0
:109E60001A6098601A6822F0847222F480321A60B4
:109E7000064A5A601A6822F480221A60D860044B9D
:109E80008B60704700ED00E0003802401030002485
:109E900000000008704782B00023019300933C4B00
:109EA0001A6842F480321A601A6802F40032009292
:109EB000019A01320192009A1AB9019AB2F5A04FA3
:109EC000F2D11B6813F4003318BF01230093009BE9
:109ED000012B56D12E4B2F491A6C42F080521A6436
:109EE0000A6842F440420A609A689A609A689A60E6
:109EF0009A6842F480529A60274A5A601A6842F07F
:109F000080721A601A689001FCD5244A40F20271EE
:109F100011609A6822F003029A609A6842F0020285
:109F20009A601B4B9A6802F00C02082AFAD19A68D0
:109F300002F00C02042A26D0082A26D159685A6851
:109F40005B684902C3F388134CBF1549154902F0F9
:109F50003F02B1FBF2F253430D4A5268C2F3014291
:109F600001325200B3FBF2F3094A91680E4AC1F381
:109F700003110A4492F85C20D3400C4A136602B0E5
:109F8000704700BFFDE7064BEEE7064BECE700BF6E
:109F9000003802400070004019304004003C02408C
:109FA00040787D010024F400FC4B060800000020EE
:109FB0000148FEF761B800BF680000200148FEF7C5
:109FC0005BB800BFB4020020064A002352F83310E9
:109FD000814201D1D8B2704701330E2BF6D1FF2058
:109FE000704700BF684C0608064A002352F8331039
:109FF000814201D1D8B2704701330E2BF6D1FE2039
:10A00000704700BF684C0608704770B5002828D01C
:10A010004C684CB9426815685679AB8902229BB2EC
:10A02000B24023EA0203AB818A683AB943681D68EB
:10A03000AB8923F001031B041B0CAB81816044B18D
:10A04000436819685D798C890223AB4023439BB236
:10A050008B8132B143681A6893899BB243F0010344
:10A06000938170BD0B4B30B51A4600241D79854293
:10A0700008D1DD68294203D0142303FB042030BD3E
:10A080000029F9D001340C2C03F11403EED1002087
:10A09000F5E700BFFC0400200028ACBF00F16040E1
:10A0A000064B4FEA0111ACBF00F5614000F00F0014
:10A0B000C9B2B4BF195480F80013704714ED00E022
:10A0C00038B503681B681C68244B07EE902A93ED93
:10A0D000187AF8EE677AB8EE477A013987EE270AE0
:10A0E0008DB2DFED1F7A30EE270A54F08BFE1D4A49
:10A0F00023880138944280B29BB212D002F580626C
:10A1000094420ED0B4F1804F0BD0A2F5803294422D
:10A1100007D002F58062944203D002F58062944237
:10A1200006D123F070039BB223F440739BB206E088
:10A130000D4A944203D002F580629442F4D1238008
:10A14000084BE5629C42208503D003F580639C4266
:10A1500001D1002323860123A38238BD0000002003
:10A160000AD7233C0000014000100040F0B54368CE
:10A170009A795D7912F0040002F0020C11BF0022FE
:10A18000E6464FF4807284460FBF012496460420B1
:10A190001446032D38D8DFE805F0023872AC1B688E
:10A1A0001D8C25F001052D042D0C1D841D8C9F8810
:10A1B0001E8B25F002052D0444EA0E042D0C26F01A
:10A1C00073062543634C3604360CA342BFB246F0F7
:10A1D000600603D004F58064A34209D14FF6F374FE
:10A1E0002C4044EA0C0427F4407744EA0005174366
:10A1F0009F801E8359631D841A8B22F0080212046B
:10A20000120C42F008021A83F0BD1D682B8C23F05B
:10A2100010031B041B0C2B842B8CAF882E8B23F07C
:10A2200020031B0444EA0E041B0C26F4E64643EA12
:10A230000413484C3604360CA542BFB246F4C0465F
:10A2400003D004F58064A5420CD123F0800343EAD7
:10A250000C1323F040039BB227F4406743EA00133A
:10A2600047EA8207AF802E83A9632B842B8B23F4CC
:10A2700000631B041B0C43F400632B83C4E71D68BD
:10A280002B8C23F480731B041B0C2B842B8CAF882A
:10A29000AE8B23F400731B0444EA0E041B0C26F05F
:10A2A000730643EA04232B4C3604360CA542BFB296
:10A2B00046F0600603D004F58064A5420CD123F477
:10A2C000006343EA0C2323F480639BB227F44057D6
:10A2D00043EA002347EA0217AF80AE83E9632B8489
:10A2E000AB8B23F008031B041B0C43F00803AB8368
:10A2F0008AE71B68188C20F480500004000C188436
:10A30000188C9E889D8B20F40050000444EA0E04B3
:10A31000000C25F4E64540EA04300E4C2D042D0CCB
:10A32000A342B6B245F4C04503D004F58064A3420D
:10A3300003D126F4804646EA82169E809D831964E6
:10A3400018849A8B22F400621204120C42F4006208
:10A350009A8359E70000014043685A79032A0FD8CD
:10A36000DFE802F00205080B1868343070471868FF
:10A370003830704718683C30704718684030704774
:10A380000020704710B543681A685879084B034499
:10A39000012093F8DC40138CA0409BB223EA000319
:10A3A0001384138CA140194389B2118410BD00BFDE
:10A3B000FC4B0608F0B5EFF31184102383F31288E9
:10A3C000C5684668AA68136823F001031360326801
:10A3D0007779104E938936F817609BB223EA06030B
:10A3E00093812A696D681F2A4FF0200385BF203AA8
:10A3F00093409340EB6098BFAB60E3B283F3118866
:10A40000C3689B6859601A6842F001021A60012310
:10A410000374F0BDFC4B06080268137D012B04BFDA
:10A420000223137592F82C100CBF4FF40073002315
:10A43000012904BF022182F82C1092F8441008BFB1
:10A4400043F48063012904BF022182F8441092F88A
:10A450005C1008BF43F4006301290DD1022182F88A
:10A460005C1043F480534268126800215162918964
:10A4700089B20B43938101E0002BF4D17047034B69
:10A480000348D3F8C011FFF74DB800BF002A0020E1
:10A490000000014010B5064C0648D4F8C011FFF783
:10A4A00041F8D4F8E0110448BDE81040FFF73AB88D
:10A4B000002A0020000001400040014010B5064C79
:10A4C0000648D4F8C011FFF72DF8D4F8E411044879
:10A4D000BDE81040FFF726B8002A00200000014028
:10A4E0000044014010B5064C0648D4F8C011FFF7EF
:10A4F00019F8D4F8E8110448BDE81040FFF712B885
:10A50000002A00200000014000480140034B4FF0AA
:10A510008040D3F8C411FFF705B800BF002A00201F
:10A52000024B0348D3F8C811FEF7FCBF002A0020F5
:10A5300000040040024B0348D3F8CC11FEF7F2BFF1
:10A54000002A002000080040024B0348D3F8D01135
:10A55000FEF7E8BF002A0020000C00400348D0F8B6
:10A56000F83513B100F2EC50184770470000002096
:10A570000348D0F8183613B100F20C601847704742
:10A58000000000200348D0F8383613B100F22C60E8
:10A5900018477047000000200348D0F8583613B120
:10A5A00000F24C6018477047000000200348D0F8C4
:10A5B000783613B100F26C60184770470000002035
:10A5C0000348D0F8983613B100F28C6018477047F2
:10A5D000000000200348D0F8B83613B100F2AC6098
:10A5E00018477047000000200348D0F8D83613B150
:10A5F00000F2CC6018477047000000200348D0F8F4
:10A60000F83613B100F2EC601847704700000020E4
:10A610000348D0F8183713B100F20C701847704790
:10A62000000000200348D0F8383713B100F22C7036
:10A6300018477047000000200348D0F8583713B17E
:10A6400000F24C7018477047000000200348D0F813
:10A65000783713B100F26C70184770470000002083
:10A660000348D0F8983713B100F28C701847704740
:10A67000000000200348D0F8B83713B100F2AC70E6
:10A6800018477047000000200348D0F8D83713B1AE
:10A6900000F2CC701847704700000020036823F0D8
:10A6A000010303600023036043608360C3600361B0
:10A6B000212343612A4B984203D13D2243F8082CC1
:10A6C0007047284B984204D14FF4746243F8202C11
:10A6D0007047254B984204D14FF4741243F8382C3C
:10A6E0007047224B984204D14FF0746243F8502CCB
:10A6F00070471F4B984203D11E4A43F8642C7047A1
:10A700001D4B984203D11D4A43F87C2C70471C4BCB
:10A71000984203D11B4A43F8942C70471A4B984235
:10A7200004D14FF03D5243F8AC2C17E0174B984240
:10A73000C3D0174B9842C7D0164B9842CCD0164B7B
:10A740009842D1D0154B9842D6D0154B9842DAD0CA
:10A75000144B9842DED0144B9842E2D0704700BFB1
:10A760001060024028600240406002405860024091
:10A77000706002403D00002088600240400F0020D1
:10A78000A060024000003D20B8600240106402401A
:10A7900028640240406402405864024070640240F1
:10A7A00088640240A0640240B86402402DE9F04190
:10A7B0000022012603250B6806FA02F737EA030395
:10A7C00034D10368540005FA04FE23EA0E03036043
:10A7D0000B79D0F800806FEA0E0C03FA04FE013BFF
:10A7E0004EEA080E012BC0F800E014D883680CEA8A
:10A7F000030383604B79D0F808C0A34043EA0C03FD
:10A800008360436823EA070343608B79476893407A
:10A810009BB23B434360C36805FA04F723EA07038E
:10A82000C360CB79C768A3403B43C3600132102AA1
:10A83000C1D1BDE8F081204B9A6802F00C02042AD5
:10A8400010B534D0082A34D159685A685B68490277
:10A85000C3F388134CBF1949194902F03F02B1FBF9
:10A86000F2F25343144A5268C2F3014201325200D9
:10A87000B3FBF2F3104C0360A168124AC1F3031159
:10A88000114491F8E010CB404360A168C1F38221EC
:10A89000114491F8E01023FA01F18160A168C1F33D
:10A8A00042310A4492F8E020D340C36010BD034B0C
:10A8B000E0E7034BDEE700BF0038024040787D014F
:10A8C0000024F400FC4B0608F0B5446B8668A389AD
:10A8D00023F400531B041B0CA3818579290201F486
:10A8E000806C417901F001038907218A4FEA053222
:10A8F00089B221F4405102F4005242EA010222825C
:10A90000A289C5F3800722F4B0524FEA83034FEACD
:10A91000073722F00C0248BF43F008034CEA070156
:10A920001204120C0B431343A381A38A23F4407334
:10A930001B041B0C85B0A3826846FFF77CFF204BED
:10A940009C4203D003F580639C4237D1039BA289CC
:10A950001921170401FB03F34FF064014CBF76008B
:10A96000B600B3FBF6F3B3FBF1F001FB10330201C9
:10A97000A08900044BBFDB001B01323332334BBFD5
:10A98000B3FBF1F3B3FBF1F303F0070303F00F03A1
:10A9900013439BB22381A38A2A0755BF23F00803E0
:10A9A0009BB21B0443F0080358BF1B0CA382A3896E
:10A9B0009BB243F40053A38105B0F0BD029BC6E7F0
:10A9C000001001402DE9F8431E46204B9DF8205011
:10A9D0009DF824709842894690462CD13B462A46E1
:10A9E00031460020FEF78CFC04460020C4E9070035
:10A9F000C4E90900C4E90B986571A660A7712046F7
:10AA0000FFF762FFEA0707D5636B4FF6DF721A8024
:10AA1000DA6842F02002DA60626BAB0742BFD368AB
:10AA200043F08003D36093899BB243F40053938136
:10AA30002046BDE8F883064B984204D13B462A469F
:10AA400031460120CEE70024F2E700BF00100140AC
:10AA500000440040816037E7417135E7817133E799
:10AA60002DE9F043654F07EBC00985B005464FEA75
:10AA7000C00899F8F00705F06DFE064699F8F10751
:10AA800005F068FE044699F8F2074EF0D3FF6B1C00
:10AA9000DBB21EB140F60C12F28033721CB140F6EC
:10AAA0000C22E280237204223A21304605F012FE85
:10AAB000204604223A2105F00DFE07EB0803D3F8E7
:10AAC000EC474F4B9C4263D103F5F2331A6A42F4D0
:10AAD00000121A621A6A22F400121A62474497F8A6
:10AAE000F337022B6ED0032B6ED0464E464A012B15
:10AAF00018BF1646A78827F03F0768463F04FFF7B0
:10AB00009AFE3F0C029A414BB2FBF3F398B2074313
:10AB1000A780218821F001010904090C21803C490A
:10AB20008E4253D13B4BB2FBF3F2013091B2042978
:10AB300080B238BF04212084A18323889BB243F0D4
:10AB400001032380238823F4816323F002031B0481
:10AB50001B0C43F4806323804FF4804323812388BC
:10AB600023F080031B041B0C238023889BB243F03B
:10AB700001032380284B03EB4513012283F8F921BD
:10AB8000002283F8F85183F8FA2105B0BDE8F0837C
:10AB9000224B9C4209D103F5F0331A6A42F4800239
:10ABA0001A621A6A22F4800297E71D4B9C4295D1E3
:10ABB00003F5EE331A6A42F400021A621A6A22F4AA
:10ABC00000028AE7124E95E7124E93E706EB46061F
:10ABD000B2FBF6F291B2C2F30B020AB941F00101E5
:10ABE0004FF4967253434FF47A72B3FBF2F301338E
:10ABF0009BB241F4004123849EE700BF0000002087
:10AC00000054004000350C00801A060040420F003E
:10AC1000A0860100400D0300002A002000580040DB
:10AC2000005C00402DE9F047BE4D460105EB4019A0
:10AC300007F02AFD99F9F821BB4B8846D10003EBB8
:10AC4000C2020746D2F8EC4799F8FA21013A142AD1
:10AC500000F28380DFE812F0790089009F00B800DD
:10AC6000C300CD00D600EB00F600FF000A014C0146
:10AC700074019A01FD010E022002290249026D02AF
:10AC800015005F184FF0090A97F8F00705F062FD0C
:10AC9000044697F8F10705F05DFDB5F85832013329
:10ACA0009BB207462046A5F8583205F0E0FC38462E
:10ACB00005F0DDFC1121204605F0E3FC11213846AA
:10ACC00005F0DFFC4FF0650803E00520002107F0E8
:10ACD0001BFD204605F0C2FC10B9B8F10108F4D103
:10ACE000204605F0C9FC0021052007F00DFD204697
:10ACF00005F0BDFC0520002107F006FDBAF1010AB0
:10AD0000E0D1204605F0B8FC0021052007F0FCFC4E
:10AD1000384605F0B1FC0021052007F0F5FC20467F
:10AD200005F0A5FC0520002107F0EEFC384605F0F3
:10AD30009EFCAB1993F9F801431C01D0FFF790FE7C
:10AD4000AB19002283F8FA2107E0238813F400737B
:10AD500040F0BA81AA1982F8FA31AB1993F8FA31A6
:10AD6000002B7FF465AFBDE8F087238823F40063F0
:10AD70001B041B0C238023889BB243F48063238035
:10AD800023889BB243F480732380AB19C3E9807896
:10AD9000032283F8FA2165492046FDF714FA0028BA
:10ADA00000F09281AB1993F80A225AB993F80B225A
:10ADB000FF2A04D193F808220AB10A22C2E7AB198C
:10ADC0000422BFE70F22BDE7AB1993F8092202F076
:10ADD000FE022282C3E98078052283F8FA215449D1
:10ADE0002046FDF7F0F9002800F06681AB19062235
:10ADF000A8E7AB1993F80B222282C3E980780722D7
:10AE000083F8FA214B492046FDF7DDF9002800F0D0
:10AE10005381AB19D3F80C223AB9228892B242F48A
:10AE200000722280C3E9807804E108228AE723883F
:10AE30009BB243F480732380AB19C3E98078092265
:10AE400083F8FA2139492046FDF7BDF9002800F0C2
:10AE50003B81AB19B1E7AB1993F8092242F001022B
:10AE60002282C3E980780B2283F8FA2132492046F6
:10AE7000FDF7A9F9002800F01F81AB19D3F80C32B7
:10AE8000012B1AD1238823F480631B041B0C23801D
:10AE9000EFF31182102383F31288238B23889BB254
:10AEA00043F400732380D3B283F311880C22AB19CF
:10AEB000C3E9807883F8FA214FE7022B15D1238864
:10AEC0009BB243F400632380EFF31182102383F3DA
:10AED0001288238B238823F480631B041B0C23809C
:10AEE000D3B283F311880D22E1E7238B0E22DEE734
:10AEF00012492046FDF771F9002800F0E580AB19F2
:10AF0000D3F81022511CC3F81012218A1170D3F803
:10AF10000C22013AC3F80C220122C3E9807883F89D
:10AF200014220FE7002A0020000000200100030087
:10AF300082000700840007000200030040000010A8
:10AF400081492046FDF749F9002800F0BD80EFF364
:10AF50001182102383F3128823889BB243F4007379
:10AF60002380AB19D2B2D3F81012481CC3F81002D8
:10AF7000208A087082F31188D3F81022511CC3F87C
:10AF80001012218A11706FF00102C3E76E4920464A
:10AF9000FDF723F9002800F09780AB1903F5007145
:10AFA000D3F80C22032A30D1228822F480621204C2
:10AFB000120C2280EFF31180102282F31288D3F852
:10AFC000102202F1010CC3F810C2B4F810C082F8CC
:10AFD00000C0228892B242F400722280C2B282F390
:10AFE0001188D3F81022501CC3F81002208A107068
:10AFF000D3F80C22023AC3F80C220C2283F8FA216F
:10B00000C3F80072C1F80480A7E6022A14D8228887
:10B0100022F480621204120C2280228892B242F43E
:10B0200000722280228AC3F80072002283F8142260
:10B03000C1F80480012285E6D3F81022501CC3F821
:10B040001002208A1070D3F80C22013AC3F80C22A7
:10B05000D6E7238823F480631B041B0C2380AB19E1
:10B0600093F8092202F0FE022282C3E980781022BE
:10B0700083F8FA2135492046FDF7A5F8E0B1AB1970
:10B0800093F80B22FF2A04D193F808220AB1132265
:10B0900058E6AB19112255E6AB1993F80B22228220
:10B0A000C3E98078122283F8FA2129492046FDF766
:10B0B0008AF808B1AB19EAE726492046FDF78DF872
:10B0C00010B1AB1914223DE6A919D1E9802342F24F
:10B0D0001070BA1A68EB0303824273F10003FFF4A5
:10B0E0003CAE152381F8FA3137E6AB1903F5007051
:10B0F000D3F80C2282B1D3F81012013A11F801CB27
:10B10000A4F810C0C3F80C22C3F80072C3F81012E0
:10B11000C0F80480122215E6228892B242F400722E
:10B1200022800122C3F8007283F81422C0F8048040
:10B1300008E623889BB243F4007323804FF6FF3365
:10B14000A382AB196EE600BF040000108200070066
:10B15000840007000004001038B5114C04EB4014C3
:10B1600094F8F951D5B1C4F80C32049BC4F81032EC
:10B17000002384F814320223490084F80B2284F857
:10B18000FA3101229DF8143084F8091284F80A2259
:10B1900084F80832FFF746FD94F81452284638BD6B
:10B1A000002A002038B5114C04EB401494F8F951F2
:10B1B000CDB1C4F80C32049BC4F81032022349000C
:10B1C00084F80B2284F8FA3100229DF8143084F8B8
:10B1D000091284F80A2284F8142284F80832FFF74E
:10B1E00021FD94F81452284638BD00BF002A0020E3
:10B1F00082B000230193054B0193019B03EB800375
:10B200000193019B196002B0704700BF50280040B5
:10B21000F7B51C2005F09EFA1121044605F031FA1D
:10B22000204605F029FAC82007F07EFA204605F0EE
:10B230001EFA1B2005F08EFA20B140F20F13C380D6
:10B240000023037224B140F20F23E3800023237212
:10B25000C04B502283F843230822C3F88820BFF351
:10B260004F8FBFF36F8FBC4CBC48236BBC4D43F07A
:10B27000010323634FF4C05140F20233CDE90013C0
:10B280006946FFF793FA436A23F470434362436AC3
:10B2900043F420434362436A23F470234362436AC6
:10B2A00043F420234362636C43F480436364636B21
:10B2B00043F080036363AB4BAB4C01205861AB4B55
:10B2C000C4F8403803F12C024833C4F84838A84B7E
:10B2D000C4F84428C4E99753022384F864324FF039
:10B2E000A043C4F8683203F50063C4F86C3203F578
:10B2F0008073C4F8743203F50073C4F8B032A3F558
:10B30000F073C4F8783203F50073C4F8B432A3F5CF
:10B31000F073C4F87C3203F50073C4F8B832A3F5B7
:10B32000F073C4F8803203F50073C4F8BC32A3F59F
:10B33000EC63C4F870324033C4F82833C03384F867
:10B340006702C4F8EC322033C4F8F0322033C4F87A
:10B35000F4322033C4F8F8322033C4F8FC322033FE
:10B36000C4F800332033C4F804332033C4F808335E
:10B3700003F52263C4F82C3303F58053C4F830334B
:10B3800003F58053C4F8343303F58053C4F83833DD
:10B390004FF05023C4F83C3303F58053C4F84033D6
:10B3A00003F58053C4F8443303F58053C4F848339D
:10B3B000A3F5E4430022C4F8683304F5177384F856
:10B3C0006E0384F8702319461546402681F81C2127
:10B3D000A1F822210132042AC1E9496581F81D0141
:10B3E00081F81F51C1F8305101F12801EED100223E
:10B3F0001646402183F87423A3F87A230132042AE5
:10B40000C3E9DF1683F8756383F87763C3F888634D
:10B4100003F12803EED14FF0A0450027AB6823F0DD
:10B420000103AB60EB6843F04003EB604EF052FB6E
:10B4300094F86532DB1B18BF01231B0143F0210385
:10B4400063F31747AF63EB68C3F3076222F0600250
:10B4500042F0400262F31F63EB60464BC5F8006E9A
:10B460001A6866F3CC221A601A6842F003021A6066
:10B4700080236B6203F58003AB6203F14013C5F8D0
:10B4800004314FF4A073C5F808311020C5F80C3111
:10B490004EF002FB0096009B43F010030093009BCC
:10B4A0002B61354B2A690092013B02D0009AD206EB
:10B4B000F8D4304A00234FF0FF311361536191619A
:10B4C0002E49D3611C46FF2051F8042F1568013323
:10B4D000002DACBF00254FF09045042B1560146182
:10B4E0009060F1D1002326481946FF2450F8042F1C
:10B4F00015680133002DACBF00254FF09045042B9B
:10B50000156011619460F1D11A4A136943F4807394
:10B5100013614FF0A0436FF0804299614FF0FF310B
:10B520005A6159605A61174A9A619969164A0A43E1
:10B530009A619A6842F001029A60144BD3F830384D
:10B540009847044B502283F8432308229A6003B0A3
:10B55000F0BD00BF00E100E0003802400000024002
:10B5600008040100003C0140002A002004080020DB
:10B570004000400100080050410D0300702C0020E5
:10B58000AC2C00200008008018383C00000000208F
:10B59000436D064A1A61C278012A06D100F2CC50E6
:10B5A00058611A684FF080221A60704718000860CE
:10B5B00038B5044600296CD190F81131022B28D1FE
:10B5C000D0F83821D0F824118A422FD9C378012B22
:10B5D00002BFD0F828315B18C0F82831521AD0F8D1
:10B5E0002831C0F838214FF48071002592B2A0F8BC
:10B5F0001C11C0E94A33C0F83451C0F8302100F5BD
:10B600008E7151F0F3F92B462A462946204651F017
:10B6100005FB94F81631012B06D1234A2369926D5C
:10B620005A60002384F81631002038BDD0F83C3130
:10B63000B3FBF1F501FB1535A5B9994212D8D0F845
:10B64000402193420ED24FF48073C0E94A55C0E9BD
:10B650004C55A0F81C3100F58E7151F0C7F9C4F8B3
:10B660004051D0E7D4F8E435DB682BB194F81221CF
:10B67000032A01D120469847052384F8113100237D
:10B6800020461A46194651F0C9FA2046FFF780FFB6
:10B69000BFE7D0F8E4355B69002BC5D090F81221E4
:10B6A000032AC1D19847BFE7002A0020704770479E
:10B6B000704710B50F4C94F86632B3B14FF0E022EA
:10B6C000D2F8103D23F00603C2F8103DFEF7BCFB94
:10B6D000D4F86C329B68DB0707D5D4F8682313686D
:10B6E00023F0030161F307031360034B4FF480223F
:10B6F0005A6110BD002A0020003C01402DE9F04FA6
:10B70000B04CD4F868325A69D0078BB000F19481FC
:10B710005A699B6912EA030A00F08E81CAF3074353
:10B720001AF4002F01930FD0D4F86C32DFF89C820A
:10B730009E69DB691E40360C04F52C7904F5177BF5
:10B740000027002E40F07B81019B59070DD5D4F8CE
:10B750006C329D4D9F69DB691F40BFB205F1180631
:10B760004FF00008002F40F0AB811AF0020F1FBF0E
:10B77000944BD3F8683202225A61BAF1000F5FFA93
:10B780008AF51BDA8F4B93F866223AB1D3F8682317
:10B79000136823F0030161F307031360D4F86C22EC
:10B7A0008948536823F001035360884BD3F88038ED
:10B7B0009847D4F868324FF000425A611AF4006F8B
:10B7C000CAF307262FD000238DF8173094F86E3374
:10B7D0008DF817307D4B7C48D3F87C389847D4F8E7
:10B7E0006822D4F86C324FF400619B68516194F880
:10B7F0006622C2B1DB0716D594F87133012B12D142
:10B800009DF81730032B0ED1D4F868331A6842F034
:10B8100001021A601A6842F003021A606C4A136946
:10B8200043F0060313612F0708D5684B6648D3F829
:10B8300074389847D4F8683208225A61ED0614D556
:10B84000D4F86802836923F010038361036AC3F3A9
:10B850004341022903F00F0200F0E781062900F0BE
:10B860000B82836943F010038361F00631D5D4F86D
:10B870006C526B68002723F001036B6038464EF072
:10B880000BF994F85DC2534AB8463B46FF20634526
:10B89000C0F000824FF0FF33AB614FF00113EB615A
:10B8A0000B2363F3070763F307086F61C5F8108084
:10B8B0002B68454823F4FE632B60FFF769FED4F83C
:10B8C000683241484FF480525A61404BD3F878387F
:10B8D0009847B1066DD5D4F86C62D4F87422B36879
:10B8E0001168C3F34103022B14BF0023032363F346
:10B8F0000A011160736843F48073736006A8FEF751
:10B900009AFFD4F868520799E86820F47050E8600C
:10B91000B36813F0060FC3F3410200F0C2812E4B4F
:10B920002E4A0B44934240F2C0812D4AA1F5740384
:10B93000A3F51053934240F2BC812A4B2A4A0B4490
:10B940009342C0F0BA81294AA1F18C73A3F5434315
:10B95000934240F2B681264B264A0B449342C0F0F4
:10B96000B481254B254A0B449342C0F0B281244A4E
:10B97000A1F1B773A3F558539342C0F0AD81214BA9
:10B98000214A0B449342C0F0AB81204B204E0B4424
:10B9900001224021B34234BF06230523094E63F33D
:10B9A0008D204FF40053E86086F85E22A6F86012FE
:10B9B0006B61019BDA0632D5044B0348D3F8843817
:10B9C000984727E0002A00205C2C0020000000207F
:10B9D00000ED00E0702C0020401E1BFF3F420F00D6
:10B9E000DFC810002013FBFE20D61300FF691800EB
:10B9F00000D3CEFE40771B00C05BB3FEC091210098
:10BA000040AC2700C01D6AFE40E13300803C36FE9A
:10BA1000E09C4100D4F868324FF480125A61019BD7
:10BA20009B0609D5B04BB148D3F888389847D4F86D
:10BA300068324FF400125A610BB0BDE8F08FF10785
:10BA400037D5D9F80010D4F86C328D685B691D4089
:10BA5000EA071ED594F85F320125AB428D6007D10D
:10BA60000969DBF87C33C1F312015B1ACBF88C3324
:10BA7000D8F868389D48F9B2984794F85F32012B9E
:10BA800007D137B994F86D33052B02D19748FFF7EA
:10BA90007FFDAB0742BFD9F8003002259D60280723
:10BAA00007D5D8F8703891489847D9F8003008225F
:10BAB0009A600137760809F104090BF1280B40E67A
:10BAC000FA0772D5D4F86C3232681869D3F834901A
:10BAD000916829FA08F94FEAC9195FFA89F949EA20
:10BAE000000909EA010919F0010F1FD0596B012063
:10BAF00000FA08F021EA000159637B4B7B48D3F838
:10BB00006C384FF00109C2F808905FFA88F1984745
:10BB100094F85F324B4509D1B8F1000F06D194F883
:10BB20006D33042B02D17148FFF732FD19F0080F75
:10BB30001EBF33684FF00809C3F8089019F0100FC2
:10BB40001EBF33684FF01009C3F8089019F0400F7A
:10BB50001EBF33684FF04009C3F8089019F0020F78
:10BB60001EBF33684FF00209C3F8089019F0800F28
:10BB70001BD0D5E94C329B1AD5F82421D6F800B059
:10BB8000934228BF13465A4ADBF8180092F85FC266
:10BB9000D2F86C9203339B080293029B80B29842C6
:10BBA00003D9D5E94C03984205D808F101087F086C
:10BBB00028350436D6E5C01AD5F82431984228BF76
:10BBC0001846C31C9B080293BCF1000F1BD0D5F88C
:10BBD0002811D5F834210144C5F82811D5F83011C1
:10BBE00002448A42DBF81800C5F83421D5D195F813
:10BBF0001C11D9F83420012303FA01F122EA0102D1
:10BC0000C9F83420C9E782B2D6F8B810D5F828E1CF
:10BC10000332931003930A466146039B8B42D6D0AE
:10BC20005EF8213013600131F7E747F6F0711942F1
:10BC30003FF417AE282101FB0241C3F30A13DD1CB8
:10BC4000D4F82CC3D1F8DC75AD1000218D420DD194
:10BC5000282101FB0242D2F8DC151944C2F8DC1598
:10BC6000D2F8E8151944C2F8E815FAE5DCF800E066
:10BC700047F821E00131E9E7D4F82C130D68C4F846
:10BC800028580968C4F82C18282101FB0242C3F384
:10BC90000A13E5E752F8041F8860D16B013388600E
:10BCA000F5E54FF40071092378E6012240210E23C7
:10BCB00074E6012240210D2370E6012240210C236D
:10BCC0006CE6012240210B2368E6012240210A2371
:10BCD00064E601224021E6E70122402108235DE6D7
:10BCE00001224021072359E6000000205C2C00209F
:10BCF000002A0020F0B59C0827010E46154600EBEF
:10BD00000414A04206F1100605F1100508D103F055
:10BD1000030339443A4404EB83039C4223D1F0BD2E
:10BD200084469CED006A16ED045AD0ED016A56ED8A
:10BD3000037A90ED027A56ED025A26EE056A66EE17
:10BD4000A76AD0ED037A05ED046A16ED016A45EDA8
:10BD5000036A27EE257A67EE867A103005ED027ABF
:10BD600045ED017ACDE7F4EC017AB1EC017A67EEAA
:10BD7000877AE2EC017AD0E74A09012350F82220C1
:10BD800001F01F018B40134214BF012000207047B7
:10BD900010B54C09012250F8243001F01F018A40EF
:10BDA000134340F8243010BD70B54E09024400EB37
:10BDB0008604A24205464FF0FF300FD901F01F0163
:10BDC00000FA01F355F826100B4093FAA3F3B3FAE7
:10BDD00083F3DBB2202B02D003EB461070BD211D94
:10BDE0009142084602D34FF0FF30F7E70368043171
:10BDF00093FAA3F3B3FA83F3DBB2202BF0D0401B0A
:10BE000003EBC000EAE780EA0120082241F22101A9
:10BE100003B2002BB5BF81EA4303400098B280B261
:10BE2000013AF5D1704738B50C468D18AC4200D1B7
:10BE300038BD14F8011BFFF7E6FFF7E7484008227A
:10BE400043B2002BBBBF5B0083F0D5034000D8B2E8
:10BE5000A8BFC0B2013AF3D1704738B50C468D186F
:10BE6000AC4200D138BD14F8011BFFF7E7FFF7E73C
:10BE700070B5066805460C460020B44203D3731C17
:10BE80002B60307070BD14F8011BFFF7D7FFF4E78B
:10BE9000DFED0A7AC0ED020A20EE270AB7EE007A3B
:10BEA000C7EE007A00230360C0ED017A70EEA77A36
:10BEB00080EEA77A80ED037A704700BFDB0FC940A0
:10BEC00090ED017AD0ED007AC0ED020A30EE877A6B
:10BED000C0EE876A30EE677AE6EE877AB0EE670AE0
:10BEE000C0ED007A7047012303700023C3648364AC
:10BEF0000365036443644365836283657047DFEDD4
:10BF0000157A80ED010AF4EEE70AF1EE10FAC0EDC1
:10BF1000020A80ED031AC0ED051A18DDB4EEE70A37
:10BF2000F1EE10FA08DC9FED0C7A80ED047A80EDDA
:10BF30000F2AC0ED0E2AD6E781EE007AC0EE207AF5
:10BF4000F0EE006A77EE877A86EEA77AEDE70023B7
:10BF50008360E8E7BD378635000000000F29A8BFE1
:10BF60000F21012970B5B8BF01214C000134002612
:10BF70000460A40005468160466022463146803058
:10BF800057F04CFC2246314605F58070BDE8704004
:10BF900057F044BCFDEEC07A17EE903A2033402BA8
:10BFA00043D8DFED237A9FED237AB4EEE70AF1EE72
:10BFB00010FA28DCDFED207A9FED1E7AB4EEE70A56
:10BFC000F1EE10FA22D4DFED1D7AB4EEE70AF1EEBD
:10BFD00010FA1EDD30EE670A37EEC00A60EE007A16
:10BFE000DFED176A9FED177AA7EEA67ADFED166AE6
:10BFF000E7EE876A9FED157AA7EEA67A20EE276A0C
:10C00000A6EE070A704730EE470ACEE730EE070A81
:10C01000D4E79FED0F7AB4EEC70AF1EE10FA44BFF1
:10C0200030EE270A37EE400AD8E79FED0A0A70473C
:10C03000DB0F4940DB0FC940DB0F49C0DB0FC93FB5
:10C040009A7C2E36FAAF4FB93587083CA4AA2ABE8F
:10C05000DB0FC9BF00000000DFED027A30EE270AD7
:10C0600098E700BFDB0FC93F10B51C46334BB3FB4D
:10C07000F2F399429FED325AF0EE404AF7EE005A41
:10C0800053D207EE901A9FED2F7ADFED2F6AF8EE6C
:10C09000677AF8EE002A67EE877A07EE102AB8EE84
:10C0A000477A27EE267AC5EE876A87EEA64AB0EE73
:10C0B000440AFFF76FFFF0EE403AB0EE440AFFF794
:10C0C000CBFF74EEA44A012C83EEA43A1CBF35EEDC
:10C0D000C04AF6EE006A33EE257A12BF64EE266A95
:10C0E000F0EE656A20EE224A86EE876AC4EE074AC1
:10C0F00060EE227A75EEC35AC7EE876AC5EE877A7C
:10C10000F0EE465AC0ED005AC0ED014A80ED026AD9
:10C11000C0ED036AC0ED047A80ED065A80ED055A41
:10C1200080ED085A80ED075A10BDF0EE454AB0EE9A
:10C13000456AF0EE456AF0EE457AE3E720A1070094
:10C1400000000000DB0FC940BD378635B0EEE06A65
:10C15000F0EEC07AB4EEE76AF1EE10FAF0EE406A63
:10C160004BDCB5EE400AF1EE10FA4BD0B4EEE76AC4
:10C17000F1EE10FAF0EE675A41D5B0EE465A85EE70
:10C18000257ADFED225A9FED225ADFED224AA7EEF3
:10C19000255ADFED215AE5EE075A9FED205AA5EE0C
:10C1A000875ADFED1F5AE5EE075A9FED1E5AE7EE5C
:10C1B000054AB7EE005AA4EE875AB1EE657A87EECB
:10C1C000050AB4EEE76AF1EE10FA48BFDFED167A21
:10C1D000F5EEC00A48BF37EEC00AF1EE10FA48BFCC
:10C1E000DFED127AF5EEC06A48BF37EEC00AF1EE15
:10C1F00010FA48BFB1EE400A7047F0EE465AB0EE72
:10C20000675ABCE79FED0A7ABBE700BF39094E3D8C
:10C21000E3B59EBE69A2163E88FA16BE45FE7FBFF4
:10C22000A7DFA8B499FB243FDB0FC93FDB0F4940D0
:10C230000000000044F25063984203DDA0F50C407A
:10C24000A0387047034B9842BCBF00F50C40A030AB
:10C25000704700BFB0B9FFFF48F69F43984203DD27
:10C26000A0F50C40A03870470028BCBF00F50C407A
:10C27000A030704791ED005A08B5B0EE450AFFF7BF
:10C28000EBFEF0EE405AB0EE450AFFF783FE91ED6B
:10C29000015AF0EE404AB0EE450AFFF7DDFEF0EE3F
:10C2A000403AB0EE450AFFF775FE91ED023AB0EE66
:10C2B000405AB0EE430AFFF7CFFEB0EE404AB0EE70
:10C2C000430AFFF767FE25EE806A63EEC07A24EE2C
:10C2D000847AC0ED017AF0EE467AE5EE077A25EE33
:10C2E000843A64EE806AC0ED037AF0EE437AE5EEBC
:10C2F000667AA5EE067AE5EE436A23EE844A64EE9A
:10C30000E34A65EEA35A80ED004A80ED025AC0ED83
:10C31000047AC0ED054AC0ED066A80ED077AC0EDEB
:10C32000085A08BD034600F1400100221A615A6113
:10C330009A61DA6110338B42F8D11022002157F054
:10C340006DBA91ED007AD0ED047AE7EE077AC0ED90
:10C35000047AD1ED006A91ED017AD0ED057AE6EE2E
:10C36000877AC0ED057AD1ED006A91ED027AD0EDC1
:10C37000067AE6EE877AC0ED067A91ED007AD0ED86
:10C38000077A77EE877AC0ED077AD1ED016A91EDF1
:10C39000007AD0ED087AE6EE877AC0ED087A91ED62
:10C3A000017AD0ED097AE7EE077AC0ED097AD1ED8E
:10C3B000016A91ED027AD0ED0A7AE6EE877AC0ED55
:10C3C0000A7A91ED017AD0ED0B7A77EE877AC0ED9B
:10C3D0000B7A91ED007AD1ED026AD0ED0C7AE6EE9F
:10C3E000877AC0ED0C7AD1ED026A91ED017AD0ED39
:10C3F0000D7AE6EE877AC0ED0D7A91ED027AD0EDF6
:10C400000E7AE7EE077AC0ED0E7A91ED027AD0ED62
:10C410000F7A77EE877AC0ED0F7A91ED007AD0ED42
:10C42000107A77EE877AC0ED107A91ED017AD0ED2F
:10C43000117A77EE877AC0ED117A91ED027AD0ED1C
:10C44000127A77EE877AB7EE007AC0ED127AD0EDE5
:10C45000137A77EE877AC0ED137AD1ED017AD1EDB8
:10C46000006A91ED027A67EEA77AE6EEA67AE7EE29
:10C47000077A90ED007AA6EEA77A80ED007AD1EDEA
:10C48000016A90ED017AA6EEA77A80ED017AD1EDEE
:10C49000026A90ED027AA6EEA77A80ED027A90ED1C
:10C4A000037A77EE277AC0ED037A70472DE9F043DF
:10C4B000034685B000F11007054600261C46AC4631
:10C4C00012E0F8EC016A1EED047AD4ED007AE6EE93
:10C4D000C77AC4ED007A98450EF1100EF1D10434FC
:10C4E000BC420CF1040C03D0A7F11008E646F2E7B9
:10C4F00001361C46B646BEF1040F1DD000EB0E1CE3
:10C50000A84604F1100907E0FCEC016A18ED047A72
:10C51000E6EEC77AC4ED047ACC45D4ED047A08F18E
:10C520001008F1D1D3ED006A87EEA67A0EF1010E64
:10C5300084ED047A6446DEE7042E03F1140305F16A
:10C54000040507F11007B9D100230093019302936A
:10C5500003936C4600231427F2EC017A00EB0315D9
:10C5600007FB030C6E466545C4ED007A1FD101330D
:10C57000042B04F10404EFD104AD103100F14002AA
:10C5800075ED017A00EB03170E461446BC4241EDEF
:10C59000017A13D152ED016A87EEA67A013BA2F12E
:10C5A000140221ED017AEBD105B0BDE8F083F5EC82
:10C5B000016AB6EC017AE6EEC77AD4E7F4EC016AD8
:10C5C000B6EC017AE6EEC77AE0E71FB50C46024604
:10C5D00069461030FFF76AFFDDED007AB6EE007AAB
:10C5E00067EE877A0120C4ED007ADDED017A67EE0F
:10C5F000877AC4ED017ADDED027A67EE877AC4EDC1
:10C60000027A04B010BDF8B510EE100A10EE904A90
:10C6100050F03AFF064620460F4650F035FF3246AE
:10C6200004460D463B463046394650F085FF2246CB
:10C63000064601F100472B462046294650F07CFF74
:10C6400002460B4650F0C2FD02460B4630463946C4
:10C6500051F09CF841EC100B52F062F851EC100BC9
:10C6600051F062FA00EE100AF8BDB5EEC00AF1EE24
:10C6700010FA08B506DB51F083FFB4EE400AF1EE84
:10C6800010FA01D79FED010A08BD00BF00000000AD
:10C690002DE9F041044626461C3004F1640250EDB9
:10C6A000017AB1EC010A77EE807A40ED017AFCF76D
:10C6B00038F818309042F2D12C4F6268D7F8003920
:10C6C00025699B1AA2680135934225612BD904F193
:10C6D0003008F36A012BC3BF03F1FF3307EE903A32
:10C6E00096ED0A7A9FED220AC4BFF8EEE77A87EE4C
:10C6F000270AFFF7BAFF4645D4ED057A15D0F4EEC8
:10C70000C07AF1EE10FA06F11806E2D5237B4BBB96
:10C71000D7F80029626000222361A261E3622263EC
:10C720006364A264E365BDE8F081F4EEC07AF1EEE3
:10C7300010FAEBD407EE905AD4ED066AF8EE677A59
:10C74000022386EEA77AD4ED0C6A84ED067A86EE93
:10C75000A77AD4ED126A84ED0C7A86EEA77A84ED7E
:10C76000127A00E003232370DDE700BF08190020E0
:10C770000000000070B52DED028B0378012B0446FC
:10C780003CD10569254E25B9426812B9D6F8002971
:10C79000426094ED068A30EE088A013584ED068AFF
:10C7A000256104F11C00FBF7BCFF6268D6F8003974
:10C7B0009B1AA268934221D9E36A012BC3BF03F1FC
:10C7C000FF3307EE903A94ED0A7A9FED150AC4BF45
:10C7D000F8EEE77A87EE270AFFF747FFD4ED057AF0
:10C7E000F4EEC07AF1EE10FA0ED5237B4BB9D6F8F1
:10C7F0000029626000222361A261E362BDEC028B2A
:10C8000070BD03232370F9E707EE905AF8EE677ABC
:10C81000022388EE277A84ED067AF3E708190020D0
:10C820000000000008B52DED028BF0EEC08AB0EEDE
:10C83000408AB7EE000A30EE680AFFF716FF9FED58
:10C840000E7ADFED0E7AE8EE877A9FED0D7AA7EE8D
:10C85000A87ADFED0C7AE7EE287AB5EEC08ABDEC57
:10C86000028BF1EE10FA20EE270A44BFDFED067AC4
:10C8700037EEC00A08BD00BF306E99BC2716983D40
:10C88000843459BEA40DC93FDB0F494060EEA00AB5
:10C89000E0EE000AB0EE600AE7E660EEA00AE0EE25
:10C8A000000AE1EE010AB0EE600ADEE62DE9F74F7C
:10C8B00090469DF83020002A0CBF4FF0200A4FF020
:10C8C000300A0D9A1C1E05460F46BABF64424FF04F
:10C8D000010B4FF0000B12F8011B01B14CB9BBF179
:10C8E000000F2DD1264636B9A1464FF0FF340D9EDC
:10C8F0000FE0013CEFE7BD4202D251462846C04757
:10C90000013EF0E7BD4203D201922846C047019A9A
:10C910001646324612F8011B0029F3D10D9BA9EBF4
:10C9200003094E44BBF1000F06D0A146B9F1000F38
:10C9300009DC002CA8BF3619304603B0BDE8F08FE3
:10C940004FF00009D3E7BD4202D251462846C04706
:10C9500009F1FF39EAE70FB437B50C4D06ABD5F84E
:10C96000E81953F8042BD5F8E409019350F00AFABA
:10C970000446D5F8AC0105F0ACFD0028F9D02046FE
:10C9800003B0BDE8304004B0704700BF002A00206B
:10C990000EB403B503AB084953F8042BCDE90030BE
:10C9A00001A850F0EFF9019B00221A7002B05DF867
:10C9B00004EB03B0704700BF758700080CB430B5B6
:10C9C0002C4CD4F8EC39A5B01BB9D4F8F039002BB5
:10C9D0003AD094F8F439994206D9012303FA00F0C9
:10C9E000D4F8F83918422FD0234BD3F800194FF45C
:10C9F0007A7304A8B1FBF3F203FB12131F49FFF78C
:10CA0000C7FF04AB0344289A1D490393054629AB8D
:10CA100003A8029350F0B6F9039B591C03910A2115
:10CA20001970039B591C0391002119700246D4F818
:10CA3000EC0990B103685B6A03B19847D4F8EC59EC
:10CA400004AC14F8011B21B925B0BDE8304002B098
:10CA50007047284605F0D8FCF3E7D4F8F039002BEE
:10CA6000F2D015440222009204A9AA18FD2028F051
:10CA700027FAE9E7002A00200819002045F60608F1
:10CA800025850008184A38B5D2F8FC59033005EB63
:10CA90009003B3F5007F19D802F52064C2F8FC3981
:10CAA000124A02EB810120F00300D1F80821C3F5FE
:10CAB00000730244C1F808219B000D4A04210020A4
:10CAC00004EB8504FFF77AFF204638BD0021094AB0
:10CAD0000846FFF773FF084AD2F8A43043F000730A
:10CAE000C2F8A4300024EFE7002A0020F83A002022
:10CAF00051F6060875F60608E84901202DE9F843C5
:10CB000005460068FDF770FA0D28044607DD1C4A4B
:10CB100000210520FFF752FF0020BDE8F883194EE1
:10CB200006EB80088700D8F8C091B9F1000F18D142
:10CB300007216420FFF7A6FF0146C8F8C00108B925
:10CB4000114AE6E76422494656F068FE0F4AD8F8D3
:10CB5000C03124B202EBC402C3E90023DB615B6392
:10CB6000DB643E446879D6F8C031182404FB0032F7
:10CB700000211046C2E90311956011750430CCE71D
:10CB800083F60608002A0020A8F60608684C060866
:10CB90002DE9F041062592F9007086B06B431446EA
:10CBA00012F80580A0EB080EA0EB070CBEF1000FF9
:10CBB000B8BFCEF1000EBCF1000FB8BFCCF1000C35
:10CBC000E645B8BF541905F10605B8BF4FFA88F716
:10CBD000AB421646E4D11A4433786588BB420BD188
:10CBE00073884D1BCB1A002DB8BF6D42002BB8BF08
:10CBF0005B429D42C8BF34460636B242ECD16379EF
:10CC0000049323790393638802932378054ACDE93B
:10CC10000013034603210120FFF7D0FE204606B093
:10CC2000BDE8F081C2F6060803685A1C026019705C
:10CC30000368090A5A1C02601970704703685A1C7D
:10CC40000260197003685A1C02600A0A1A700368AD
:10CC50005A1C02600A0C1A700368090E5A1C026002
:10CC60001970704738B504460068154654F060FDE9
:10CC700023682B44236038BD03685A1C026018786F
:10CC8000704703685A1C02601A4612F8021B0260C1
:10CC9000587841EA00207047026810B5531C0360C1
:10CCA000134613F8021B0360D31C54780360937877
:10CCB0001B0443EA04230B43111D0160D07843EAAF
:10CCC000006010BDD1E900329A4206D05A1C0A60B9
:10CCD00008B11B7803700120704700207047D1E92C
:10CCE00000239B1A012B10B50446084604DDFFF70C
:10CCF000C8FF2080012010BD0020FCE738B50546A4
:10CD00000024284650F054FAA04200D838BD2B5DCC
:10CD1000A3F16102192A9CBF203B2B550134F0E797
:10CD200030B50A440546914201D1002011E015F8C2
:10CD3000013B11F8014BA3F141001928A4F1410076
:10CD400098BF2033192898BF2034181B01D1002C1C
:10CD5000E9D130BD6FF00042E2E710B50388827878
:10CD600003F003010C24013A04FB012211498479E8
:10CD700001EB4202A3F5FA63B2F8FE2040F2B5518E
:10CD80009B0801FB0323C278013A1344027918215E
:10CD900001FB0323427900893C2101FB0322064B5E
:10CDA000234401FB02334FF47A720021C3FB0201DA
:10CDB00010BD00BFFC4B060880436D38F8B519461E
:10CDC0000446002310464FF47A7251F00BF8244BBE
:10CDD0003C25034493FBF5F005FB103390FBF5F184
:10CDE00005FB110060711820A37191FBF0F300FBAB
:10CDF000131140F2B550217193FBF0F100FB113398
:10CE0000B3F5896F4FEA810526DA40F2DA218B42C9
:10CE100024DCB3F5B77FB4BF00200120114E1821E8
:10CE200001FB00660B2136F811709F4201DD0139CC
:10CE3000F9D105F5FA65054425804D1CA5700C2532
:10CE400005FB00110848228100EB41010133B1F8D4
:10CE5000FE105B1AE370F8BD0320DFE70220DDE778
:10CE600080BC92C7FA4C0608FC4B0608F0B5294D69
:10CE700007460E460FCD8DB06C460FC40FCD0FC4C4
:10CE800095E80F0084E80F0017F003033FD16421F9
:10CE900097FBF1F201FB127242B94FF4C87297FB93
:10CEA000F2F302FB1373003B18BF01237A1EC3F198
:10CEB0001D03002A019340F26D13114607FB03F393
:10CEC000B8BFB91C03EBA1036FF0630192FBF1F152
:10CED0000B444FF4C87192FBF1F21344253307243D
:10CEE00093FBF4F2C2EBC2029B1A013E6D46002195
:10CEF00055F8040F01310344B14293FBF4F2C2EB45
:10CF0000C202A3EB0203F3D1C01A0DB0F0BD01239E
:10CF1000CCE700BF5C4D0608084BD3E9641251EA28
:10CF2000020309D0064BD3F800395B1842F1000226
:10CF3000C0E900320120704700207047F83A002015
:10CF40000819002037B505466846FFF7E5FF044697
:10CF500038B1DDE900232846FFF730FF204603B053
:10CF600030BD40F2011328806B80A880A871288111
:10CF7000F4E737B50546FFF7E5FF044650B1074B28
:10CF80000DF10602B3F89831ADF80630294628466F
:10CF90004BF041FD204603B030BD00BFF83A002001
:10CFA000F0B50124B0FBF4F58D4203D200261CB984
:10CFB0001C70F0BD4C43F5E7B0FBF4F5B4FBF1F7A2
:10CFC00004FB15002EB9002D03DC8C420CD33C462B
:10CFD000EDE7092D08DD002A0CBF572437242C4427
:10CFE00003F8014B0136F2E73024F8E70346303806
:10CFF000C2B2092A0FD9A3F16102052A02D8A3F10E
:10D0000057007047A3F14102052A02D8A3F1370067
:10D0100070474FF0FF30704770B5044694420846A1
:10D020001546B4FBF2F602D33046FFF7F5FF05FBD9
:10D030001644024B1B5D00F8013B70BDFBF6060871
:10D04000B5EEC00ADFED2D7AF1EE10FACCBF30EE6E
:10D05000270A30EE670ADFED2A7A20EE270A30B57C
:10D06000FDEEC07A87B017EE904A054684EAE47078
:10D07000002303A9A0EBE470CDE9003302934CF048
:10D08000FBFC002CB4BF2D23202303A88DF8003017
:10D0900050F08EF8012822D130238DF8013043F270
:10D0A0003003ADF8023003A9684657F029FB684603
:10D0B00050F07EF8C41EE4B222466946284654F079
:10D0C00037FB00232B550F49284657F019FB0DEB72
:10D0D0000401284657F014FB284607B030BD02284B
:10D0E00005D130238DF801308DF80230DBE70328BD
:10D0F00004BF30238DF80130D5E700BF6F12033A2B
:10D1000000007A44A52C070830B50278202A03468F
:10D1100000F10100F9D0092AF7D02D2A4BD103469E
:10D12000BFEE000A9FED3C7A1A46F2EE046A1346FF
:10D1300012F8010BA0F13001CCB2092C41D92E28F4
:10D140000BD1F2EE046A1146B0EE666A0B4611F896
:10D15000012B303AD0B209283CD91A7802F0DF020C
:10D16000452A53D15A782D2A3FD102330120013B61
:10D1700000220A2513F8011F3039CCB2092C3AD904
:10D18000B2F59A7F1346DFED256A28BF4FF49A73F4
:10D190001A46F7EE007A072A30D8DA086FF007014E
:10D1A00001FB0233F2EE046A63BB88B3C7EE276A61
:10D1B00020EE260A30BD2B2A08BF0346B7EE000A30
:10D1C000B0E707EE901AF8EEE77AE7EE267AB0EECF
:10D1D000677AACE707EE902AF8EEE77AC7EEA65A30
:10D1E00066EE866A37EE257AB0E72B2A14BF013344
:10D1F00002330020BBE705FB0212BBE767EEA67A0D
:10D20000083AC8E767EEA67A013BCDE7F7EE007A69
:10D2100067EE276ACCE700BF0000000020BCBE4CD0
:10D2200070B5034610F8012B202AFAD0092AF8D04D
:10D230002D2A0ABF034601254FF0FF35591E002451
:10D240000A2611F8010FFFF7D1FE092802D905FBC4
:10D2500004F070BD06FB0404F3E710B5002380283A
:10D2600004D893420AD2C854581C10BD934205D02A
:10D2700060F07F04CC54C0090133F0E74FF0FF3079
:10D28000F3E7F8B5144D2B787E2B23D101222946E4
:10D290000020FEF7C8FD114F6C1C228862B1A31D4F
:10D2A000BB4217D2A618BE4214D2052A12D9214673
:10D2B000FEF7B9FD3446F0E702222146FEF7B3FD42
:10D2C0006388074AC31A0434641B5842A2F89C417D
:10D2D0005841F8BD0020FCE700400008008000082D
:10D2E000F83A00202DE9F04F724BDFF8DCB18FB037
:10D2F000A3EB0B02CDE901234FF00308102200211C
:10D300000AA856F08BFA019B0993029B08936A4B7B
:10D31000CDF81CB01A69002ABFBF684A5A6002F1F2
:10D3200088325A600124F322DA604FF000097E232C
:10D33000224604A907A88DF83440CDF830908DF826
:10D340001030FBF7A5FF4845C0F2A180224604A992
:10D350004846FEF768FD5A4CADF81200594B9C4206
:10D360003CD30024022205A907A8ADF81440FBF71E
:10D370008FFFA042C0F28B80BDF81200022205A9E7
:10D38000FEF751FD0222ADF812000DF1120107A8BF
:10D39000FBF77EFFA0427ADB0B9880B1079B089ACF
:10D3A0000344934273D80AABC0F1040221461844E7
:10D3B00056F034FA0AA907A8FBF7C6FE0C900C9B9E
:10D3C000002B64DB9DF8342022B13B490A6942F00E
:10D3D00000420A61B3FA83F35B0959E062888DF871
:10D3E0001990C2F30B06B31DADF814302388C3F3B4
:10D3F0000B011B0B8DF818301304ADF816101ED45A
:10D40000062205A907A8FBF743FF00283FDBBDF86C
:10D410001200062205A9FEF706FD6768054632469A
:10D42000394607A8FBF734FF002830DB324639467F
:10D430002846FEF7F8FCADF8120014348EE70027FA
:10D440003D460135EDB2062205A907A88DF8195011
:10D45000FBF71EFF00281ADBBDF81200062205A903
:10D46000FEF7E1FC616882463944324607A8039121
:10D47000FBF70EFF00280ADB039932465046FEF701
:10D48000D2FC032DADF812003744DAD1D5E70023E2
:10D49000B8F1010808D0002B3FF430AFFFF7F1FEE0
:10D4A00020B10FB0BDE8F08F002BF7D1052005F0BB
:10D4B00050F900BF00800008003C0240230167458E
:10D4C00028550708785A070800400008034AD2F890
:10D4D000A03123EA0003C2F8A0317047F83A0020D7
:10D4E000034606490648884201D300207047028857
:10D4F000C2F30B029342F9D01430F4E7785A0708CC
:10D500002855070870B544880B460546C4F30B043C
:10D5100022460021184656F081F92969084A9142AD
:10D52000034607D3074A914205D22246BDE8704020
:10D5300054F0FEB819B1BDE870401846084770BDF8
:10D54000785A07088F5F070810B4B0F90240428884
:10D55000002C0B4641685DF8044BBEBFC2F30B02C2
:10D56000DBB203FB0211CDE730B5094B094CA342F6
:10D5700000D330BDB3F902205988002A06DA5A6870
:10D58000DD68C1F30B0100FB01222A601433EEE7D2
:10D5900028550708785A070830B50246014400208C
:10D5A00012F8015B082480EA050343F3000323F02B
:10D5B000730383EA5003D8B2631E13F0FF044FEAEB
:10D5C0005505F0D19142EBD130BD164B03EB8003F2
:10D5D00070B5D3F8280808B3134D0C2202FB005293
:10D5E00092F9A531591C1AD092F8AD01B0B1E918E1
:10D5F0008C2491F8F86192F8AC1100201422634356
:10D600005C1805EB4404013AB4F8FC41314410FACB
:10D6100084F0F5D11423B0FBF3F080B270BD00208C
:10D62000FCE700BF08190020F83A00202DE9F04F70
:10D63000542204460021C14891B056F0EFF8C04989
:10D64000621E033412F8013F581E052888BF0023CC
:10D65000944241F8043BF5D10120FBF7AFF840B10B
:10D66000B84B142283F8B02193F8F821013283F8E3
:10D67000F8210220FBF7A2F840B1B24B152283F843
:10D68000BC2193F8F821013283F8F8210320FBF73D
:10D6900095F840B1AB4B162283F8C82193F8F821D6
:10D6A000013283F8F8210420FBF788F840B1A54B3C
:10D6B000172283F8D42193F8F821013283F8F82156
:10D6C0000520FBF78BF806209C4EDFF89082FBF7D5
:10D6D00085F834464FF01A0B4FF0000A08F5C87968
:10D6E000277B57B3384694F90D5003F033F828B12F
:10D6F00005238371002380F807B00372132102F021
:10D70000C0FF002319F83310B94240F0DD8008EB68
:10D71000C303D3F894318C4A2361182303FB0525F6
:10D7200055F8243C2375591C0723A375012345F89C
:10D73000241C637505F8283C9A440BF1010B5FFA31
:10D740008BFBBBF1200F04F10C04C9D1BAF1000F1F
